{
  "contractName": "StoreHash",
  "abi": [
    {
      "constant": false,
      "inputs": [
        {
          "name": "_ipfsHash",
          "type": "string"
        }
      ],
      "name": "addHash",
      "outputs": [],
      "payable": false,
      "stateMutability": "nonpayable",
      "type": "function"
    },
    {
      "constant": true,
      "inputs": [],
      "name": "getLatestTaskId",
      "outputs": [
        {
          "name": "",
          "type": "uint256"
        }
      ],
      "payable": false,
      "stateMutability": "view",
      "type": "function"
    },
    {
      "constant": true,
      "inputs": [
        {
          "name": "id",
          "type": "uint256"
        }
      ],
      "name": "getCorrespondingHash",
      "outputs": [
        {
          "name": "",
          "type": "string"
        }
      ],
      "payable": false,
      "stateMutability": "view",
      "type": "function"
    }
  ],
  "bytecode": "0x608060405234801561001057600080fd5b50610362806100206000396000f300608060405260043610610057576000357c0100000000000000000000000000000000000000000000000000000000900463ffffffff168063386e8dd31461005c578063a48cb13514610087578063aeb276021461012d575b600080fd5b34801561006857600080fd5b50610071610196565b6040518082815260200191505060405180910390f35b34801561009357600080fd5b506100b26004803603810190808035906020019092919050505061019f565b6040518080602001828103825283818151815260200191508051906020019080838360005b838110156100f25780820151818401526020810190506100d7565b50505050905090810190601f16801561011f5780820380516001836020036101000a031916815260200191505b509250505060405180910390f35b34801561013957600080fd5b50610194600480360381019080803590602001908201803590602001908080601f0160208091040260200160405190810160405280939291908181526020018383808284378201915050505050509192919290505050610254565b005b60008054905090565b6060600160008381526020019081526020016000208054600181600116156101000203166002900480601f0160208091040260200160405190810160405280929190818152602001828054600181600116156101000203166002900480156102485780601f1061021d57610100808354040283529160200191610248565b820191906000526020600020905b81548152906001019060200180831161022b57829003601f168201915b50505050509050919050565b6000808154809291906001019190505550806001600080548152602001908152602001600020908051906020019061028d929190610291565b5050565b828054600181600116156101000203166002900490600052602060002090601f016020900481019282601f106102d257805160ff1916838001178555610300565b82800160010185558215610300579182015b828111156102ff5782518255916020019190600101906102e4565b5b50905061030d9190610311565b5090565b61033391905b8082111561032f576000816000905550600101610317565b5090565b905600a165627a7a72305820e9b61bb628b1925ec899c440580e074cd3958de8eb96ba6e685678219203471e0029",
  "source": "pragma solidity ^0.4.15;\r\n\r\ncontract StoreHash {\r\n\r\n    uint task_id;  //person_id????????///???/////////?????//////??????\r\n    mapping (uint => string) id_to_hashes;  \r\n    mapping(address => uint[]) parent_to_tasks;\r\n    mapping(address => address[]) parent_to_children;\r\n\r\n    //MODIFIER\r\n    //onlyParent\r\n    //onlyChildren can see the specific id modifier\r\n    \r\n    function addHash(string _ipfsHash) public {\r\n        task_id++;  //use safemath.        \r\n        id_to_hashes[task_id] = _ipfsHash;\r\n    }\r\n\r\n    function getLatestTaskId() public view returns (uint) {\r\n        return task_id;\r\n    }\r\n\r\n    function getCorrespondingHash(uint id) public view returns (string) {\r\n        return id_to_hashes[id];\r\n    }\r\n}",
  "sourcePath": "C:\\Users\\Rahul\\Desktop\\jsonIPFS\\contracts\\StoreHash.sol",
  "compiler": {
    "name": "solc",
    "version": "0.4.24+commit.e67f0147.Emscripten.clang"
  },
  "schemaVersion": "2.0.0",
  "updatedAt": "2018-07-12T17:50:31.309Z"
}