{
  "contractName": "StoreHash",
  "abi": [
    {
      "constant": false,
      "inputs": [
        {
          "name": "child",
          "type": "address"
        }
      ],
      "name": "addChildren",
      "outputs": [],
      "payable": false,
      "stateMutability": "nonpayable",
      "type": "function"
    },
    {
      "constant": false,
      "inputs": [
        {
          "name": "_ipfsHash",
          "type": "string"
        }
      ],
      "name": "addHash",
      "outputs": [],
      "payable": false,
      "stateMutability": "nonpayable",
      "type": "function"
    },
    {
      "constant": true,
      "inputs": [],
      "name": "getLatestTaskId",
      "outputs": [
        {
          "name": "",
          "type": "uint256"
        }
      ],
      "payable": false,
      "stateMutability": "view",
      "type": "function"
    },
    {
      "constant": true,
      "inputs": [
        {
          "name": "id",
          "type": "uint256"
        }
      ],
      "name": "getCorrespondingHash",
      "outputs": [
        {
          "name": "",
          "type": "string"
        }
      ],
      "payable": false,
      "stateMutability": "view",
      "type": "function"
    }
  ],
  "bytecode": "0x608060405234801561001057600080fd5b506104a9806100206000396000f300608060405260043610610062576000357c0100000000000000000000000000000000000000000000000000000000900463ffffffff168063386e8dd314610067578063a48cb13514610092578063aeb2760214610138578063ed175129146101a1575b600080fd5b34801561007357600080fd5b5061007c6101e4565b6040518082815260200191505060405180910390f35b34801561009e57600080fd5b506100bd600480360381019080803590602001909291905050506101ed565b6040518080602001828103825283818151815260200191508051906020019080838360005b838110156100fd5780820151818401526020810190506100e2565b50505050905090810190601f16801561012a5780820380516001836020036101000a031916815260200191505b509250505060405180910390f35b34801561014457600080fd5b5061019f600480360381019080803590602001908201803590602001908080601f01602080910402602001604051908101604052809392919081815260200183838082843782019150505050505091929192905050506102a2565b005b3480156101ad57600080fd5b506101e2600480360381019080803573ffffffffffffffffffffffffffffffffffffffff169060200190929190505050610332565b005b60008054905090565b6060600160008381526020019081526020016000208054600181600116156101000203166002900480601f0160208091040260200160405190810160405280929190818152602001828054600181600116156101000203166002900480156102965780601f1061026b57610100808354040283529160200191610296565b820191906000526020600020905b81548152906001019060200180831161027957829003601f168201915b50505050509050919050565b600080815480929190600101919050555080600160008054815260200190815260200160002090805190602001906102db9291906103d8565b5033600260008054815260200190815260200160002060006101000a81548173ffffffffffffffffffffffffffffffffffffffff021916908373ffffffffffffffffffffffffffffffffffffffff16021790555050565b600360003373ffffffffffffffffffffffffffffffffffffffff1673ffffffffffffffffffffffffffffffffffffffff1681526020019081526020016000208190806001815401808255809150509060018203906000526020600020016000909192909190916101000a81548173ffffffffffffffffffffffffffffffffffffffff021916908373ffffffffffffffffffffffffffffffffffffffff1602179055505050565b828054600181600116156101000203166002900490600052602060002090601f016020900481019282601f1061041957805160ff1916838001178555610447565b82800160010185558215610447579182015b8281111561044657825182559160200191906001019061042b565b5b5090506104549190610458565b5090565b61047a91905b8082111561047657600081600090555060010161045e565b5090565b905600a165627a7a72305820688090bd6a40e397d1f01000f18b290c8a5be39d25b99c812e217380e73664670029",
  "source": "pragma solidity ^0.4.15;\r\n\r\ncontract StoreHash {\r\n\r\n    uint private task_id;  \r\n    mapping (uint => string) private id_to_hashes;  \r\n    mapping(uint => address) task_to_parent;\r\n    mapping(address => address[]) parent_to_children;\r\n\r\n    function addChildren(address child) {\r\n       parent_to_children[msg.sender].push(child);\r\n    }\r\n    \r\n   //onlyParent verifies a completed task_id\r\n   //onlyChild logs that he completed a task\r\n    modifier onlyParent(uint id) {\r\n        require(msg.sender == task_to_parent[id]);\r\n        _;\r\n    }\r\n    \r\n    function childBelongsToTask(uint id) internal view returns(bool){\r\n        address parent = task_to_parent[id];\r\n        address[] memory array = parent_to_children[parent];\r\n        for (uint i = 0; i < array.length; i++) {\r\n            if (msg.sender == array[i]) \r\n                return true;\r\n        }\r\n        return false;\r\n    }\r\n    \r\n    function addHash(string _ipfsHash) public {\r\n        task_id++;  //use safemath.        \r\n        id_to_hashes[task_id] = _ipfsHash;\r\n        task_to_parent[task_id] = msg.sender;\r\n    }\r\n\r\n    function getLatestTaskId() public view returns (uint) {\r\n        return task_id;\r\n    }\r\n\r\n    function getCorrespondingHash(uint id) public view returns (string) {\r\n        return id_to_hashes[id];\r\n    }\r\n}",
  "sourcePath": "C:\\Users\\Rahul\\Desktop\\jsonIPFS\\contracts\\StoreHash.sol",
  "compiler": {
    "name": "solc",
    "version": "0.4.24+commit.e67f0147.Emscripten.clang"
  },
  "schemaVersion": "2.0.0",
  "updatedAt": "2018-07-13T21:38:11.430Z"
}