{
  "contractName": "StoreHash",
  "abi": [
    {
      "constant": true,
      "inputs": [
        {
          "name": "",
          "type": "address"
        },
        {
          "name": "",
          "type": "uint256"
        }
      ],
      "name": "parent_to_children",
      "outputs": [
        {
          "name": "",
          "type": "address"
        }
      ],
      "payable": false,
      "stateMutability": "view",
      "type": "function"
    },
    {
      "constant": false,
      "inputs": [
        {
          "name": "_ipfsHash",
          "type": "string"
        },
        {
          "name": "payment",
          "type": "uint256"
        }
      ],
      "name": "addTask",
      "outputs": [],
      "payable": false,
      "stateMutability": "nonpayable",
      "type": "function"
    },
    {
      "constant": false,
      "inputs": [
        {
          "name": "child",
          "type": "address"
        }
      ],
      "name": "addChildren",
      "outputs": [],
      "payable": false,
      "stateMutability": "nonpayable",
      "type": "function"
    },
    {
      "constant": false,
      "inputs": [
        {
          "name": "_taskId",
          "type": "uint256"
        }
      ],
      "name": "doingATask",
      "outputs": [],
      "payable": false,
      "stateMutability": "nonpayable",
      "type": "function"
    },
    {
      "constant": false,
      "inputs": [
        {
          "name": "id",
          "type": "uint256"
        }
      ],
      "name": "completedATask",
      "outputs": [],
      "payable": false,
      "stateMutability": "nonpayable",
      "type": "function"
    },
    {
      "constant": false,
      "inputs": [
        {
          "name": "id",
          "type": "uint256"
        }
      ],
      "name": "verifyTask",
      "outputs": [],
      "payable": true,
      "stateMutability": "payable",
      "type": "function"
    },
    {
      "constant": true,
      "inputs": [],
      "name": "getLatestTaskId",
      "outputs": [
        {
          "name": "",
          "type": "uint256"
        }
      ],
      "payable": false,
      "stateMutability": "view",
      "type": "function"
    },
    {
      "constant": true,
      "inputs": [
        {
          "name": "id",
          "type": "uint256"
        }
      ],
      "name": "getCorrespondingTask",
      "outputs": [
        {
          "name": "",
          "type": "string"
        },
        {
          "name": "",
          "type": "address"
        },
        {
          "name": "",
          "type": "address"
        },
        {
          "name": "",
          "type": "uint256"
        },
        {
          "name": "",
          "type": "bool"
        }
      ],
      "payable": false,
      "stateMutability": "view",
      "type": "function"
    }
  ],
  "bytecode": "0x608060405234801561001057600080fd5b50611343806100206000396000f30060806040526004361061008e576000357c0100000000000000000000000000000000000000000000000000000000900463ffffffff168063272a41e5146100935780633143d082146100c0578063386e8dd3146101335780634fe64cb71461015e5780635573e3ef1461018b578063a73fc360146101ab578063b33477ac14610238578063ed17512914610356575b600080fd5b34801561009f57600080fd5b506100be60048036038101908080359060200190929190505050610399565b005b3480156100cc57600080fd5b50610131600480360381019080803590602001908201803590602001908080601f016020809104026020016040519081016040528093929190818152602001838380828437820191505050505050919291929080359060200190929190505050610452565b005b34801561013f57600080fd5b5061014861073d565b6040518082815260200191505060405180910390f35b34801561016a57600080fd5b5061018960048036038101908080359060200190929190505050610746565b005b6101a960048036038101908080359060200190929190505050610a60565b005b3480156101b757600080fd5b506101f6600480360381019080803573ffffffffffffffffffffffffffffffffffffffff16906020019092919080359060200190929190505050610da0565b604051808273ffffffffffffffffffffffffffffffffffffffff1673ffffffffffffffffffffffffffffffffffffffff16815260200191505060405180910390f35b34801561024457600080fd5b5061026360048036038101908080359060200190929190505050610ded565b60405180806020018673ffffffffffffffffffffffffffffffffffffffff1673ffffffffffffffffffffffffffffffffffffffff1681526020018573ffffffffffffffffffffffffffffffffffffffff1673ffffffffffffffffffffffffffffffffffffffff16815260200184815260200183151515158152602001828103825287818151815260200191508051906020019080838360005b838110156103175780820151818401526020810190506102fc565b50505050905090810190601f1680156103445780820380516001836020036101000a031916815260200191505b50965050505050505060405180910390f35b34801561036257600080fd5b50610397600480360381019080803573ffffffffffffffffffffffffffffffffffffffff169060200190929190505050610fc1565b005b806103a4813361107d565b15156103af57600080fd5b3373ffffffffffffffffffffffffffffffffffffffff166002600084815260200190815260200160002060010160009054906101000a900473ffffffffffffffffffffffffffffffffffffffff1673ffffffffffffffffffffffffffffffffffffffff1614151561041f57600080fd5b60016002600084815260200190815260200160002060040160006101000a81548160ff0219169083151502179055505050565b61045a611214565b6000808154809291906001019190505550600260008054815260200190815260200160002060a06040519081016040529081600082018054600181600116156101000203166002900480601f0160208091040260200160405190810160405280929190818152602001828054600181600116156101000203166002900480156105245780601f106104f957610100808354040283529160200191610524565b820191906000526020600020905b81548152906001019060200180831161050757829003601f168201915b505050505081526020016001820160009054906101000a900473ffffffffffffffffffffffffffffffffffffffff1673ffffffffffffffffffffffffffffffffffffffff1673ffffffffffffffffffffffffffffffffffffffff1681526020016002820160009054906101000a900473ffffffffffffffffffffffffffffffffffffffff1673ffffffffffffffffffffffffffffffffffffffff1673ffffffffffffffffffffffffffffffffffffffff168152602001600382015481526020016004820160009054906101000a900460ff161515151581525050905082816000018190525033816040019073ffffffffffffffffffffffffffffffffffffffff16908173ffffffffffffffffffffffffffffffffffffffff168152505081816060018181525050806002600080548152602001908152602001600020600082015181600001908051906020019061067c929190611272565b5060208201518160010160006101000a81548173ffffffffffffffffffffffffffffffffffffffff021916908373ffffffffffffffffffffffffffffffffffffffff16021790555060408201518160020160006101000a81548173ffffffffffffffffffffffffffffffffffffffff021916908373ffffffffffffffffffffffffffffffffffffffff1602179055506060820151816003015560808201518160040160006101000a81548160ff021916908315150217905550905050505050565b60008054905090565b61074e611214565b81610759813361107d565b151561076457600080fd5b6002600084815260200190815260200160002060a06040519081016040529081600082018054600181600116156101000203166002900480601f01602080910402602001604051908101604052809291908181526020018280546001816001161561010002031660029004801561081c5780601f106107f15761010080835404028352916020019161081c565b820191906000526020600020905b8154815290600101906020018083116107ff57829003601f168201915b505050505081526020016001820160009054906101000a900473ffffffffffffffffffffffffffffffffffffffff1673ffffffffffffffffffffffffffffffffffffffff1673ffffffffffffffffffffffffffffffffffffffff1681526020016002820160009054906101000a900473ffffffffffffffffffffffffffffffffffffffff1673ffffffffffffffffffffffffffffffffffffffff1673ffffffffffffffffffffffffffffffffffffffff168152602001600382015481526020016004820160009054906101000a900460ff1615151515815250509150600073ffffffffffffffffffffffffffffffffffffffff16826020015173ffffffffffffffffffffffffffffffffffffffff1614151561093757600080fd5b33826020019073ffffffffffffffffffffffffffffffffffffffff16908173ffffffffffffffffffffffffffffffffffffffff16815250508160026000858152602001908152602001600020600082015181600001908051906020019061099f929190611272565b5060208201518160010160006101000a81548173ffffffffffffffffffffffffffffffffffffffff021916908373ffffffffffffffffffffffffffffffffffffffff16021790555060408201518160020160006101000a81548173ffffffffffffffffffffffffffffffffffffffff021916908373ffffffffffffffffffffffffffffffffffffffff1602179055506060820151816003015560808201518160040160006101000a81548160ff021916908315150217905550905050505050565b610a68611214565b8160006002600083815260200190815260200160002060020160009054906101000a900473ffffffffffffffffffffffffffffffffffffffff1690508073ffffffffffffffffffffffffffffffffffffffff163373ffffffffffffffffffffffffffffffffffffffff16141515610ade57600080fd5b6002600085815260200190815260200160002060030154803410151515610b0457600080fd5b846000806002600089815260200190815260200160002060a06040519081016040529081600082018054600181600116156101000203166002900480601f016020809104026020016040519081016040528092919081815260200182805460018160011615610100020316600290048015610bc05780601f10610b9557610100808354040283529160200191610bc0565b820191906000526020600020905b815481529060010190602001808311610ba357829003601f168201915b505050505081526020016001820160009054906101000a900473ffffffffffffffffffffffffffffffffffffffff1673ffffffffffffffffffffffffffffffffffffffff1673ffffffffffffffffffffffffffffffffffffffff1681526020016002820160009054906101000a900473ffffffffffffffffffffffffffffffffffffffff1673ffffffffffffffffffffffffffffffffffffffff1673ffffffffffffffffffffffffffffffffffffffff168152602001600382015481526020016004820160009054906101000a900460ff161515151581525050965086608001511515610cac57600080fd5b866020015173ffffffffffffffffffffffffffffffffffffffff166108fc88606001519081150290604051600060405180830381858888f19350505050158015610cfa573d6000803e3d6000fd5b506002600084815260200190815260200160002060030154915081340390506002600084815260200190815260200160002060020160009054906101000a900473ffffffffffffffffffffffffffffffffffffffff1673ffffffffffffffffffffffffffffffffffffffff166108fc829081150290604051600060405180830381858888f19350505050158015610d95573d6000803e3d6000fd5b505050505050505050565b600160205281600052604060002081815481101515610dbb57fe5b906000526020600020016000915091509054906101000a900473ffffffffffffffffffffffffffffffffffffffff1681565b6060600080600080610dfd611214565b6002600088815260200190815260200160002060a06040519081016040529081600082018054600181600116156101000203166002900480601f016020809104026020016040519081016040528092919081815260200182805460018160011615610100020316600290048015610eb55780601f10610e8a57610100808354040283529160200191610eb5565b820191906000526020600020905b815481529060010190602001808311610e9857829003601f168201915b505050505081526020016001820160009054906101000a900473ffffffffffffffffffffffffffffffffffffffff1673ffffffffffffffffffffffffffffffffffffffff1673ffffffffffffffffffffffffffffffffffffffff1681526020016002820160009054906101000a900473ffffffffffffffffffffffffffffffffffffffff1673ffffffffffffffffffffffffffffffffffffffff1673ffffffffffffffffffffffffffffffffffffffff168152602001600382015481526020016004820160009054906101000a900460ff161515151581525050905080600001518160400151826020015183606001518460800151849450955095509550955095505091939590929450565b610fcb33826110cc565b151515610fd757600080fd5b600160003373ffffffffffffffffffffffffffffffffffffffff1673ffffffffffffffffffffffffffffffffffffffff1681526020019081526020016000208190806001815401808255809150509060018203906000526020600020016000909192909190916101000a81548173ffffffffffffffffffffffffffffffffffffffff021916908373ffffffffffffffffffffffffffffffffffffffff1602179055505050565b6000806002600085815260200190815260200160002060020160009054906101000a900473ffffffffffffffffffffffffffffffffffffffff1690506110c381846110cc565b91505092915050565b600060606000600160008673ffffffffffffffffffffffffffffffffffffffff1673ffffffffffffffffffffffffffffffffffffffff16815260200190815260200160002080548060200260200160405190810160405280929190818152602001828054801561119157602002820191906000526020600020905b8160009054906101000a900473ffffffffffffffffffffffffffffffffffffffff1673ffffffffffffffffffffffffffffffffffffffff1681526020019060010190808311611147575b50505050509150600090505b81518110156112075781818151811015156111b457fe5b9060200190602002015173ffffffffffffffffffffffffffffffffffffffff168473ffffffffffffffffffffffffffffffffffffffff1614156111fa576001925061120c565b808060010191505061119d565b600092505b505092915050565b60a06040519081016040528060608152602001600073ffffffffffffffffffffffffffffffffffffffff168152602001600073ffffffffffffffffffffffffffffffffffffffff168152602001600081526020016000151581525090565b828054600181600116156101000203166002900490600052602060002090601f016020900481019282601f106112b357805160ff19168380011785556112e1565b828001600101855582156112e1579182015b828111156112e05782518255916020019190600101906112c5565b5b5090506112ee91906112f2565b5090565b61131491905b808211156113105760008160009055506001016112f8565b5090565b905600a165627a7a72305820408f0f581f7ba2e0218fbb28d0a91f13a32705420ae6ba86e00840ca8f9004ec0029",
  "source": "pragma solidity ^0.4.15;\r\n\r\ncontract StoreHash {\r\n\r\n    uint private task_id;\r\n    mapping(address => address[]) public parent_to_children;\r\n    mapping(uint => Task) private id_to_task;\r\n\r\n    struct Task {\r\n        string ipfsHash;\r\n        address childDoing;\r\n        address parent;\r\n        uint payment;\r\n        bool completed;\r\n    }\r\n    \r\n    modifier correctChild(uint id) {\r\n        require(doesChildBelongsToTask(id,msg.sender));\r\n        _;\r\n    }\r\n    modifier onlyParent(uint id) {\r\n        address parent = id_to_task[id].parent;\r\n        require(msg.sender==parent);\r\n        _;\r\n    }\r\n    \r\n    modifier checkEnough(uint _price) { \r\n        require(msg.value >= _price); \r\n        _;\r\n    }\r\n    modifier refundIfExtra(uint id) {\r\n        //refund them after pay for item\r\n        _;\r\n        uint payment = id_to_task[id].payment;\r\n        uint amountToRefund = msg.value - payment;\r\n        id_to_task[id].parent.transfer(amountToRefund);\r\n    }\r\n\r\n    function addTask(string _ipfsHash, uint payment) public {\r\n        task_id++;  //use safemath.     \r\n        Task memory task = id_to_task[task_id];\r\n        task.ipfsHash = _ipfsHash;\r\n        task.parent = msg.sender;\r\n        task.payment = payment;\r\n        id_to_task[task_id] = task;\r\n    } \r\n    \r\n    function addChildren(address child) {\r\n        //don't allow to add same child again!\r\n        require(!doesChildBelongsToParent(msg.sender, child)); \r\n        parent_to_children[msg.sender].push(child);\r\n    }\r\n    \r\n    function doingATask(uint _taskId) correctChild(_taskId) {\r\n        Task memory task = id_to_task[_taskId];\r\n        require(task.childDoing==0x0000000000000000000000000000000000000000);\r\n        task.childDoing = msg.sender;\r\n        id_to_task[_taskId] = task;\r\n    }\r\n    \r\n    function completedATask(uint id) correctChild(id) {\r\n        require(id_to_task[id].childDoing == msg.sender);\r\n        id_to_task[id].completed = true;\r\n    }\r\n    \r\n    function verifyTask(uint id) payable\r\n        onlyParent(id) \r\n        checkEnough(id_to_task[id].payment) \r\n        refundIfExtra(id) {\r\n        \r\n        Task memory task = id_to_task[id];    \r\n        require(task.completed);\r\n        task.childDoing.transfer(task.payment);\r\n    }\r\n    \r\n    //getters\r\n    function getLatestTaskId() public view returns (uint) {\r\n        return task_id;\r\n    }\r\n\r\n    function getCorrespondingTask(uint id) public view \r\n        returns (string, address, address, uint, bool) {\r\n        Task memory task = id_to_task[id];\r\n        return (task.ipfsHash, task.parent, task.childDoing, task.payment, task.completed);\r\n    }\r\n    \r\n    //helper methods.\r\n    function doesChildBelongsToParent(address parent, address child) \r\n        internal \r\n        view \r\n        returns (bool) \r\n        {\r\n        address[] memory array = parent_to_children[parent];\r\n        for (uint i = 0; i < array.length; i++) {\r\n            if (child == array[i]) \r\n                return true;\r\n        }\r\n        return false;\r\n    }\r\n    \r\n    function doesChildBelongsToTask(uint id, address child) internal view returns(bool) {\r\n        address parent = id_to_task[id].parent;\r\n        return doesChildBelongsToParent(parent, child);\r\n    }\r\n}",
  "sourcePath": "C:\\Users\\Rahul\\Desktop\\jsonIPFS\\contracts\\StoreHash.sol",
  "compiler": {
    "name": "solc",
    "version": "0.4.24+commit.e67f0147.Emscripten.clang"
  },
  "schemaVersion": "2.0.0",
  "updatedAt": "2018-07-15T18:08:22.012Z"
}