{
  "contractName": "TaskManager",
  "abi": [
    {
      "constant": true,
      "inputs": [
        {
          "name": "",
          "type": "uint256"
        }
      ],
      "name": "idToTask",
      "outputs": [
        {
          "name": "ipfsHash",
          "type": "string"
        },
        {
          "name": "childDoing",
          "type": "address"
        },
        {
          "name": "parent",
          "type": "address"
        },
        {
          "name": "completed",
          "type": "bool"
        },
        {
          "name": "verified",
          "type": "bool"
        }
      ],
      "payable": false,
      "stateMutability": "view",
      "type": "function"
    },
    {
      "constant": true,
      "inputs": [],
      "name": "task_id",
      "outputs": [
        {
          "name": "",
          "type": "uint256"
        }
      ],
      "payable": false,
      "stateMutability": "view",
      "type": "function"
    },
    {
      "constant": true,
      "inputs": [],
      "name": "getLatestTaskId",
      "outputs": [
        {
          "name": "",
          "type": "uint256"
        }
      ],
      "payable": false,
      "stateMutability": "view",
      "type": "function"
    },
    {
      "constant": true,
      "inputs": [
        {
          "name": "",
          "type": "address"
        },
        {
          "name": "",
          "type": "uint256"
        }
      ],
      "name": "parentToChildren",
      "outputs": [
        {
          "name": "",
          "type": "address"
        }
      ],
      "payable": false,
      "stateMutability": "view",
      "type": "function"
    },
    {
      "constant": true,
      "inputs": [
        {
          "name": "id",
          "type": "uint256"
        }
      ],
      "name": "getCorrespondingTask",
      "outputs": [
        {
          "name": "",
          "type": "string"
        },
        {
          "name": "",
          "type": "address"
        },
        {
          "name": "",
          "type": "address"
        },
        {
          "name": "",
          "type": "bool"
        },
        {
          "name": "",
          "type": "bool"
        }
      ],
      "payable": false,
      "stateMutability": "view",
      "type": "function"
    },
    {
      "anonymous": false,
      "inputs": [
        {
          "indexed": false,
          "name": "id",
          "type": "uint256"
        },
        {
          "indexed": true,
          "name": "parent",
          "type": "address"
        }
      ],
      "name": "TaskCreated",
      "type": "event"
    },
    {
      "anonymous": false,
      "inputs": [
        {
          "indexed": false,
          "name": "id",
          "type": "uint256"
        },
        {
          "indexed": true,
          "name": "childDoing",
          "type": "address"
        }
      ],
      "name": "TaskDoing",
      "type": "event"
    },
    {
      "anonymous": false,
      "inputs": [
        {
          "indexed": false,
          "name": "id",
          "type": "uint256"
        },
        {
          "indexed": true,
          "name": "childDoing",
          "type": "address"
        }
      ],
      "name": "TaskCompleted",
      "type": "event"
    },
    {
      "constant": false,
      "inputs": [
        {
          "name": "_ipfsHash",
          "type": "string"
        }
      ],
      "name": "addTask",
      "outputs": [],
      "payable": false,
      "stateMutability": "nonpayable",
      "type": "function"
    },
    {
      "constant": false,
      "inputs": [
        {
          "name": "child",
          "type": "address"
        }
      ],
      "name": "addChildren",
      "outputs": [],
      "payable": false,
      "stateMutability": "nonpayable",
      "type": "function"
    },
    {
      "constant": false,
      "inputs": [
        {
          "name": "_taskId",
          "type": "uint256"
        }
      ],
      "name": "doingATask",
      "outputs": [],
      "payable": false,
      "stateMutability": "nonpayable",
      "type": "function"
    },
    {
      "constant": false,
      "inputs": [
        {
          "name": "id",
          "type": "uint256"
        }
      ],
      "name": "completedATask",
      "outputs": [],
      "payable": false,
      "stateMutability": "nonpayable",
      "type": "function"
    },
    {
      "constant": false,
      "inputs": [
        {
          "name": "id",
          "type": "uint256"
        }
      ],
      "name": "verifyTask",
      "outputs": [],
      "payable": true,
      "stateMutability": "payable",
      "type": "function"
    }
  ],
  "bytecode": "0x608060405234801561001057600080fd5b506112f5806100206000396000f3006080604052600436106100a4576000357c0100000000000000000000000000000000000000000000000000000000900463ffffffff1680631c8187a6146100a95780632165efd2146101cb578063272a41e5146101f6578063386e8dd31461022357806341a7c55b1461024e5780634fe64cb7146102db5780635573e3ef146103085780636723856214610328578063b33477ac14610391578063ed175129146104b3575b600080fd5b3480156100b557600080fd5b506100d4600480360381019080803590602001909291905050506104f6565b60405180806020018673ffffffffffffffffffffffffffffffffffffffff1673ffffffffffffffffffffffffffffffffffffffff1681526020018573ffffffffffffffffffffffffffffffffffffffff1673ffffffffffffffffffffffffffffffffffffffff1681526020018415151515815260200183151515158152602001828103825287818151815260200191508051906020019080838360005b8381101561018c578082015181840152602081019050610171565b50505050905090810190601f1680156101b95780820380516001836020036101000a031916815260200191505b50965050505050505060405180910390f35b3480156101d757600080fd5b506101e061061e565b6040518082815260200191505060405180910390f35b34801561020257600080fd5b5061022160048036038101908080359060200190929190505050610624565b005b34801561022f57600080fd5b5061023861072b565b6040518082815260200191505060405180910390f35b34801561025a57600080fd5b50610299600480360381019080803573ffffffffffffffffffffffffffffffffffffffff16906020019092919080359060200190929190505050610734565b604051808273ffffffffffffffffffffffffffffffffffffffff1673ffffffffffffffffffffffffffffffffffffffff16815260200191505060405180910390f35b3480156102e757600080fd5b5061030660048036038101908080359060200190929190505050610781565b005b610326600480360381019080803590602001909291905050506108af565b005b34801561033457600080fd5b5061038f600480360381019080803590602001908201803590602001908080601f0160208091040260200160405190810160405280939291908181526020018383808284378201915050505050509192919290505050610a35565b005b34801561039d57600080fd5b506103bc60048036038101908080359060200190929190505050610d8c565b60405180806020018673ffffffffffffffffffffffffffffffffffffffff1673ffffffffffffffffffffffffffffffffffffffff1681526020018573ffffffffffffffffffffffffffffffffffffffff1673ffffffffffffffffffffffffffffffffffffffff1681526020018415151515815260200183151515158152602001828103825287818151815260200191508051906020019080838360005b83811015610474578082015181840152602081019050610459565b50505050905090810190601f1680156104a15780820380516001836020036101000a031916815260200191505b50965050505050505060405180910390f35b3480156104bf57600080fd5b506104f4600480360381019080803573ffffffffffffffffffffffffffffffffffffffff169060200190929190505050610f71565b005b6002602052806000526040600020600091509050806000018054600181600116156101000203166002900480601f0160208091040260200160405190810160405280929190818152602001828054600181600116156101000203166002900480156105a25780601f10610577576101008083540402835291602001916105a2565b820191906000526020600020905b81548152906001019060200180831161058557829003601f168201915b5050505050908060010160009054906101000a900473ffffffffffffffffffffffffffffffffffffffff16908060020160009054906101000a900473ffffffffffffffffffffffffffffffffffffffff16908060020160149054906101000a900460ff16908060020160159054906101000a900460ff16905085565b60005481565b8061062f813361102d565b151561063a57600080fd5b3373ffffffffffffffffffffffffffffffffffffffff166002600084815260200190815260200160002060010160009054906101000a900473ffffffffffffffffffffffffffffffffffffffff1673ffffffffffffffffffffffffffffffffffffffff161415156106aa57600080fd5b60016002600084815260200190815260200160002060020160146101000a81548160ff0219169083151502179055503373ffffffffffffffffffffffffffffffffffffffff167fbb5889c77948badf90e8a5c73d55265e5f5d6e4837a79a78c5669691b897faed836040518082815260200191505060405180910390a25050565b60008054905090565b60016020528160005260406000208181548110151561074f57fe5b906000526020600020016000915091509054906101000a900473ffffffffffffffffffffffffffffffffffffffff1681565b8061078c813361102d565b151561079757600080fd5b600073ffffffffffffffffffffffffffffffffffffffff166002600084815260200190815260200160002060010160009054906101000a900473ffffffffffffffffffffffffffffffffffffffff1673ffffffffffffffffffffffffffffffffffffffff1614151561080857600080fd5b336002600084815260200190815260200160002060010160006101000a81548173ffffffffffffffffffffffffffffffffffffffff021916908373ffffffffffffffffffffffffffffffffffffffff1602179055503373ffffffffffffffffffffffffffffffffffffffff167ffbdd986515d16aa91bc14fc46f7e6bf5d60fad3e45de25188f04c57811c0d769836040518082815260200191505060405180910390a25050565b8060006002600083815260200190815260200160002060020160009054906101000a900473ffffffffffffffffffffffffffffffffffffffff1690508073ffffffffffffffffffffffffffffffffffffffff163373ffffffffffffffffffffffffffffffffffffffff1614151561092557600080fd5b6002600084815260200190815260200160002060020160149054906101000a900460ff16151561095457600080fd5b6002600084815260200190815260200160002060020160159054906101000a900460ff1615151561098457600080fd5b60016002600085815260200190815260200160002060020160156101000a81548160ff0219169083151502179055506002600084815260200190815260200160002060010160009054906101000a900473ffffffffffffffffffffffffffffffffffffffff1673ffffffffffffffffffffffffffffffffffffffff166108fc349081150290604051600060405180830381858888f19350505050158015610a2f573d6000803e3d6000fd5b50505050565b610a3d6111c4565b6000808154809291906001019190505550600260008054815260200190815260200160002060a06040519081016040529081600082018054600181600116156101000203166002900480601f016020809104026020016040519081016040528092919081815260200182805460018160011615610100020316600290048015610b075780601f10610adc57610100808354040283529160200191610b07565b820191906000526020600020905b815481529060010190602001808311610aea57829003601f168201915b505050505081526020016001820160009054906101000a900473ffffffffffffffffffffffffffffffffffffffff1673ffffffffffffffffffffffffffffffffffffffff1673ffffffffffffffffffffffffffffffffffffffff1681526020016002820160009054906101000a900473ffffffffffffffffffffffffffffffffffffffff1673ffffffffffffffffffffffffffffffffffffffff1673ffffffffffffffffffffffffffffffffffffffff1681526020016002820160149054906101000a900460ff161515151581526020016002820160159054906101000a900460ff161515151581525050905081816000018190525033816040019073ffffffffffffffffffffffffffffffffffffffff16908173ffffffffffffffffffffffffffffffffffffffff16815250508060026000805481526020019081526020016000206000820151816000019080519060200190610c66929190611224565b5060208201518160010160006101000a81548173ffffffffffffffffffffffffffffffffffffffff021916908373ffffffffffffffffffffffffffffffffffffffff16021790555060408201518160020160006101000a81548173ffffffffffffffffffffffffffffffffffffffff021916908373ffffffffffffffffffffffffffffffffffffffff16021790555060608201518160020160146101000a81548160ff02191690831515021790555060808201518160020160156101000a81548160ff0219169083151502179055509050503373ffffffffffffffffffffffffffffffffffffffff167fe9ee39160568153d230ca0e29961267415d513defbb7d3b21af0fe940e1ebd156000546040518082815260200191505060405180910390a25050565b6060600080600080610d9c6111c4565b6002600088815260200190815260200160002060a06040519081016040529081600082018054600181600116156101000203166002900480601f016020809104026020016040519081016040528092919081815260200182805460018160011615610100020316600290048015610e545780601f10610e2957610100808354040283529160200191610e54565b820191906000526020600020905b815481529060010190602001808311610e3757829003601f168201915b505050505081526020016001820160009054906101000a900473ffffffffffffffffffffffffffffffffffffffff1673ffffffffffffffffffffffffffffffffffffffff1673ffffffffffffffffffffffffffffffffffffffff1681526020016002820160009054906101000a900473ffffffffffffffffffffffffffffffffffffffff1673ffffffffffffffffffffffffffffffffffffffff1673ffffffffffffffffffffffffffffffffffffffff1681526020016002820160149054906101000a900460ff161515151581526020016002820160159054906101000a900460ff161515151581525050905080600001518160400151826020015183606001518460800151849450955095509550955095505091939590929450565b610f7b338261107c565b151515610f8757600080fd5b600160003373ffffffffffffffffffffffffffffffffffffffff1673ffffffffffffffffffffffffffffffffffffffff1681526020019081526020016000208190806001815401808255809150509060018203906000526020600020016000909192909190916101000a81548173ffffffffffffffffffffffffffffffffffffffff021916908373ffffffffffffffffffffffffffffffffffffffff1602179055505050565b6000806002600085815260200190815260200160002060020160009054906101000a900473ffffffffffffffffffffffffffffffffffffffff169050611073818461107c565b91505092915050565b600060606000600160008673ffffffffffffffffffffffffffffffffffffffff1673ffffffffffffffffffffffffffffffffffffffff16815260200190815260200160002080548060200260200160405190810160405280929190818152602001828054801561114157602002820191906000526020600020905b8160009054906101000a900473ffffffffffffffffffffffffffffffffffffffff1673ffffffffffffffffffffffffffffffffffffffff16815260200190600101908083116110f7575b50505050509150600090505b81518110156111b757818181518110151561116457fe5b9060200190602002015173ffffffffffffffffffffffffffffffffffffffff168473ffffffffffffffffffffffffffffffffffffffff1614156111aa57600192506111bc565b808060010191505061114d565b600092505b505092915050565b60a06040519081016040528060608152602001600073ffffffffffffffffffffffffffffffffffffffff168152602001600073ffffffffffffffffffffffffffffffffffffffff1681526020016000151581526020016000151581525090565b828054600181600116156101000203166002900490600052602060002090601f016020900481019282601f1061126557805160ff1916838001178555611293565b82800160010185558215611293579182015b82811115611292578251825591602001919060010190611277565b5b5090506112a091906112a4565b5090565b6112c691905b808211156112c25760008160009055506001016112aa565b5090565b905600a165627a7a723058205adb847b3a48050ecc4b9a839e4d2a9c21d6e41b89ff79fe1d29eb9c0b3ca59f0029",
  "source": "pragma solidity ^0.4.15;\r\nimport './TaskHelper.sol';\r\n\r\n/**@title */\r\ncontract TaskManager is TaskHelper {\r\n\r\n\t//events\r\n\tevent TaskCreated(uint id, address indexed parent);\r\n\tevent TaskDoing(uint id, address indexed childDoing);\r\n\tevent TaskCompleted(uint id, address indexed childDoing);\r\n    \r\n    modifier correctChild(uint id) {\r\n        require(doesChildBelongsToTask(id,msg.sender));\r\n        _;\r\n    }\r\n    modifier onlyParent(uint id) {\r\n        address parent = idToTask[id].parent;\r\n        require(msg.sender==parent);\r\n        _;\r\n    }\r\n\r\n\t/** @notice create a new task\r\n\t  * @dev initialize a struct Task and save it on a mapping with \r\n\t\tcorresponding id\r\n      * @param _ipfsHash the ipfsHash where Task data is stored.\r\n\t  */\r\n    function addTask(string _ipfsHash) public {\r\n        task_id++;  //use safemath.     \r\n        Task memory task = idToTask[task_id];\r\n        task.ipfsHash = _ipfsHash;\r\n        task.parent = msg.sender;\r\n        idToTask[task_id] = task;\r\n\t\temit TaskCreated(task_id, msg.sender);\r\n    } \r\n    \r\n\t/** @notice parent adds the children, who can do tasks for them.\t\r\n\t  * @dev child address added to a mapping parentToChildren if \r\n\t\tnot already added.\r\n      * @param child address of the child\r\n\t  */\r\n    function addChildren(address child) {\r\n        //don't allow to add same child again!\r\n        require(!doesChildBelongsToParent(msg.sender, child)); \r\n        parentToChildren[msg.sender].push(child);\r\n    }\r\n    \r\n\t/** @notice a child confirms that he/she is doing the task\t\r\n\t  * @dev in the task struct for the id, child's address is \r\n\t\tstored if no other child is doing the task. \r\n      * @param _taskId the task id\r\n\t  */\r\n    function doingATask(uint _taskId) correctChild(_taskId) {\r\n        require(idToTask[_taskId].childDoing==0x0000000000000000000000000000000000000000);\r\n        idToTask[_taskId].childDoing = msg.sender;\r\n\t\temit TaskDoing(_taskId, msg.sender);\r\n    }\r\n\t\r\n\t/** @dev set task as completed, provided msg.sender was doing the task\r\n      * @param id the task id\r\n\t  */    \r\n    function completedATask(uint id) correctChild(id) {\r\n        require(idToTask[id].childDoing == msg.sender);\r\n        idToTask[id].completed = true;\r\n\t\temit TaskCompleted(id, msg.sender);\r\n    }\r\n    \r\n\t/** @notice parent verifies the task and pays.\r\n\t  * @dev  must check that the right parent/address calls the method, \r\n\t\tand pays an amount.\r\n      * @param id the task id\r\n\t  */\r\n    function verifyTask(uint id) payable onlyParent(id) {        \r\n        require(idToTask[id].completed);\r\n\t\trequire(!idToTask[id].verified);\r\n\t\tidToTask[id].verified = true;\r\n        idToTask[id].childDoing.transfer(msg.value);\r\n    }\r\n}",
  "sourcePath": "/home/rahul/Desktop/finalProj/contracts/TaskManager.sol",
  "compiler": {
    "name": "solc",
    "version": "0.4.24+commit.e67f0147.Emscripten.clang"
  },
  "schemaVersion": "2.0.1",
  "updatedAt": "2018-07-28T11:11:44.382Z"
}