{
  "contractName": "TaskHelper",
  "abi": [
    {
      "constant": true,
      "inputs": [],
      "name": "task_id",
      "outputs": [
        {
          "name": "",
          "type": "uint256"
        }
      ],
      "payable": false,
      "stateMutability": "view",
      "type": "function"
    },
    {
      "constant": true,
      "inputs": [
        {
          "name": "",
          "type": "uint256"
        }
      ],
      "name": "id_to_task",
      "outputs": [
        {
          "name": "ipfsHash",
          "type": "string"
        },
        {
          "name": "childDoing",
          "type": "address"
        },
        {
          "name": "parent",
          "type": "address"
        },
        {
          "name": "completed",
          "type": "bool"
        }
      ],
      "payable": false,
      "stateMutability": "view",
      "type": "function"
    },
    {
      "constant": true,
      "inputs": [
        {
          "name": "",
          "type": "address"
        },
        {
          "name": "",
          "type": "uint256"
        }
      ],
      "name": "parent_to_children",
      "outputs": [
        {
          "name": "",
          "type": "address"
        }
      ],
      "payable": false,
      "stateMutability": "view",
      "type": "function"
    },
    {
      "constant": true,
      "inputs": [],
      "name": "getLatestTaskId",
      "outputs": [
        {
          "name": "",
          "type": "uint256"
        }
      ],
      "payable": false,
      "stateMutability": "view",
      "type": "function"
    },
    {
      "constant": true,
      "inputs": [
        {
          "name": "id",
          "type": "uint256"
        }
      ],
      "name": "getCorrespondingTask",
      "outputs": [
        {
          "name": "",
          "type": "string"
        },
        {
          "name": "",
          "type": "address"
        },
        {
          "name": "",
          "type": "address"
        },
        {
          "name": "",
          "type": "bool"
        }
      ],
      "payable": false,
      "stateMutability": "view",
      "type": "function"
    }
  ],
  "bytecode": "0x608060405234801561001057600080fd5b50610737806100206000396000f30060806040526004361061006d576000357c0100000000000000000000000000000000000000000000000000000000900463ffffffff1680632165efd214610072578063386e8dd31461009d57806370846c03146100c8578063a73fc360146101df578063b33477ac1461026c575b600080fd5b34801561007e57600080fd5b50610087610383565b6040518082815260200191505060405180910390f35b3480156100a957600080fd5b506100b2610389565b6040518082815260200191505060405180910390f35b3480156100d457600080fd5b506100f360048036038101908080359060200190929190505050610392565b60405180806020018573ffffffffffffffffffffffffffffffffffffffff1673ffffffffffffffffffffffffffffffffffffffff1681526020018473ffffffffffffffffffffffffffffffffffffffff1673ffffffffffffffffffffffffffffffffffffffff16815260200183151515158152602001828103825286818151815260200191508051906020019080838360005b838110156101a1578082015181840152602081019050610186565b50505050905090810190601f1680156101ce5780820380516001836020036101000a031916815260200191505b509550505050505060405180910390f35b3480156101eb57600080fd5b5061022a600480360381019080803573ffffffffffffffffffffffffffffffffffffffff169060200190929190803590602001909291905050506104a7565b604051808273ffffffffffffffffffffffffffffffffffffffff1673ffffffffffffffffffffffffffffffffffffffff16815260200191505060405180910390f35b34801561027857600080fd5b50610297600480360381019080803590602001909291905050506104f4565b60405180806020018573ffffffffffffffffffffffffffffffffffffffff1673ffffffffffffffffffffffffffffffffffffffff1681526020018473ffffffffffffffffffffffffffffffffffffffff1673ffffffffffffffffffffffffffffffffffffffff16815260200183151515158152602001828103825286818151815260200191508051906020019080838360005b8381101561034557808201518184015260208101905061032a565b50505050905090810190601f1680156103725780820380516001836020036101000a031916815260200191505b509550505050505060405180910390f35b60005481565b60008054905090565b6002602052806000526040600020600091509050806000018054600181600116156101000203166002900480601f01602080910402602001604051908101604052809291908181526020018280546001816001161561010002031660029004801561043e5780601f106104135761010080835404028352916020019161043e565b820191906000526020600020905b81548152906001019060200180831161042157829003601f168201915b5050505050908060010160009054906101000a900473ffffffffffffffffffffffffffffffffffffffff16908060020160009054906101000a900473ffffffffffffffffffffffffffffffffffffffff16908060020160149054906101000a900460ff16905084565b6001602052816000526040600020818154811015156104c257fe5b906000526020600020016000915091509054906101000a900473ffffffffffffffffffffffffffffffffffffffff1681565b606060008060006105036106b4565b6002600087815260200190815260200160002060806040519081016040529081600082018054600181600116156101000203166002900480601f0160208091040260200160405190810160405280929190818152602001828054600181600116156101000203166002900480156105bb5780601f10610590576101008083540402835291602001916105bb565b820191906000526020600020905b81548152906001019060200180831161059e57829003601f168201915b505050505081526020016001820160009054906101000a900473ffffffffffffffffffffffffffffffffffffffff1673ffffffffffffffffffffffffffffffffffffffff1673ffffffffffffffffffffffffffffffffffffffff1681526020016002820160009054906101000a900473ffffffffffffffffffffffffffffffffffffffff1673ffffffffffffffffffffffffffffffffffffffff1673ffffffffffffffffffffffffffffffffffffffff1681526020016002820160149054906101000a900460ff161515151581525050905080600001518160400151826020015183606001518393509450945094509450509193509193565b60806040519081016040528060608152602001600073ffffffffffffffffffffffffffffffffffffffff168152602001600073ffffffffffffffffffffffffffffffffffffffff16815260200160001515815250905600a165627a7a723058206616e08914458aa2e4d56f0bb36fea8bd30588be8367f1fc6ddcbc8b0d2138150029",
  "source": "pragma solidity ^0.4.15;\r\n\r\n/**@title TaskHelper methods, getters to support TaskManager.sol*/\r\ncontract TaskHelper {\r\n\t//state variables.\r\n    uint public task_id;\r\n    mapping(address => address[]) public parent_to_children;\r\n    mapping(uint => Task) public id_to_task;\r\n\r\n    struct Task {\r\n        string ipfsHash;\r\n        address childDoing;\r\n        address parent;\r\n        bool completed;\r\n    }\r\n    \r\n\t/** @notice Checks if a child (address) is associated to a particular parent (address).\r\n      * @param parent address of the parent.\r\n      * @param child address of the child\r\n\t  * @return bool if the child is associated to the parent or no.\r\n\t  */\r\n    function doesChildBelongsToParent(address parent, address child) \r\n        internal \r\n        view \r\n        returns (bool) \r\n        {\r\n        address[] memory array = parent_to_children[parent];\r\n        for (uint i = 0; i < array.length; i++) {\r\n            if (child == array[i]) \r\n                return true;\r\n        }\r\n        return false;\r\n    }\r\n    \r\n\t/** @notice Checks if a child (address) is associated to a particular task.\r\n      * @param id the task id.\r\n      * @param child address of the child\r\n\t  * @return bool if the child is associated to the task or no.\r\n\t  */\r\n    function doesChildBelongsToTask(uint id, address child) internal view returns(bool) {\r\n        address parent = id_to_task[id].parent;\r\n        return doesChildBelongsToParent(parent, child);\r\n    }\r\n    \r\n\t//@notice Gets the latest task id.\r\n    function getLatestTaskId() public view returns (uint) {\r\n        return task_id;\r\n    }\r\n\r\n\t/** @notice Gets the relevant details of a particular task.\r\n\t  * @dev Returns individual values of each item of the Task struct\r\n\t  * @param id the task id\r\n\t  */\r\n    function getCorrespondingTask(uint id) public view \r\n        returns (string, address, address, bool) \r\n        {\r\n        Task memory task = id_to_task[id];\r\n        return (task.ipfsHash, task.parent, task.childDoing, task.completed);\r\n    }\r\n}",
  "sourcePath": "C:\\Users\\Rahul\\Desktop\\finalProj\\contracts\\TaskHelper.sol",
  "compiler": {
    "name": "solc",
    "version": "0.4.24+commit.e67f0147.Emscripten.clang"
  },
  "schemaVersion": "2.0.0",
  "updatedAt": "2018-07-19T12:26:39.242Z"
}