{
  "contractName": "TaskManager",
  "abi": [
    {
      "constant": true,
      "inputs": [],
      "name": "task_id",
      "outputs": [
        {
          "name": "",
          "type": "uint256"
        }
      ],
      "payable": false,
      "stateMutability": "view",
      "type": "function"
    },
    {
      "constant": true,
      "inputs": [],
      "name": "getLatestTaskId",
      "outputs": [
        {
          "name": "",
          "type": "uint256"
        }
      ],
      "payable": false,
      "stateMutability": "view",
      "type": "function"
    },
    {
      "constant": true,
      "inputs": [
        {
          "name": "",
          "type": "uint256"
        }
      ],
      "name": "id_to_task",
      "outputs": [
        {
          "name": "ipfsHash",
          "type": "string"
        },
        {
          "name": "childDoing",
          "type": "address"
        },
        {
          "name": "parent",
          "type": "address"
        },
        {
          "name": "payment",
          "type": "uint256"
        },
        {
          "name": "completed",
          "type": "bool"
        }
      ],
      "payable": false,
      "stateMutability": "view",
      "type": "function"
    },
    {
      "constant": true,
      "inputs": [
        {
          "name": "",
          "type": "address"
        },
        {
          "name": "",
          "type": "uint256"
        }
      ],
      "name": "parent_to_children",
      "outputs": [
        {
          "name": "",
          "type": "address"
        }
      ],
      "payable": false,
      "stateMutability": "view",
      "type": "function"
    },
    {
      "constant": true,
      "inputs": [
        {
          "name": "id",
          "type": "uint256"
        }
      ],
      "name": "getCorrespondingTask",
      "outputs": [
        {
          "name": "",
          "type": "string"
        },
        {
          "name": "",
          "type": "address"
        },
        {
          "name": "",
          "type": "address"
        },
        {
          "name": "",
          "type": "uint256"
        },
        {
          "name": "",
          "type": "bool"
        }
      ],
      "payable": false,
      "stateMutability": "view",
      "type": "function"
    },
    {
      "constant": false,
      "inputs": [
        {
          "name": "_ipfsHash",
          "type": "string"
        },
        {
          "name": "payment",
          "type": "uint256"
        }
      ],
      "name": "addTask",
      "outputs": [],
      "payable": false,
      "stateMutability": "nonpayable",
      "type": "function"
    },
    {
      "constant": false,
      "inputs": [
        {
          "name": "child",
          "type": "address"
        }
      ],
      "name": "addChildren",
      "outputs": [],
      "payable": false,
      "stateMutability": "nonpayable",
      "type": "function"
    },
    {
      "constant": false,
      "inputs": [
        {
          "name": "_taskId",
          "type": "uint256"
        }
      ],
      "name": "doingATask",
      "outputs": [],
      "payable": false,
      "stateMutability": "nonpayable",
      "type": "function"
    },
    {
      "constant": false,
      "inputs": [
        {
          "name": "id",
          "type": "uint256"
        }
      ],
      "name": "completedATask",
      "outputs": [],
      "payable": false,
      "stateMutability": "nonpayable",
      "type": "function"
    },
    {
      "constant": false,
      "inputs": [
        {
          "name": "id",
          "type": "uint256"
        }
      ],
      "name": "verifyTask",
      "outputs": [],
      "payable": true,
      "stateMutability": "payable",
      "type": "function"
    }
  ],
  "bytecode": "0x608060405234801561001057600080fd5b506115aa806100206000396000f3006080604052600436106100a4576000357c0100000000000000000000000000000000000000000000000000000000900463ffffffff1680632165efd2146100a9578063272a41e5146100d45780633143d08214610101578063386e8dd3146101745780634fe64cb71461019f5780635573e3ef146101cc57806370846c03146101ec578063a73fc3601461030a578063b33477ac14610397578063ed175129146104b5575b600080fd5b3480156100b557600080fd5b506100be6104f8565b6040518082815260200191505060405180910390f35b3480156100e057600080fd5b506100ff600480360381019080803590602001909291905050506104fe565b005b34801561010d57600080fd5b50610172600480360381019080803590602001908201803590602001908080601f0160208091040260200160405190810160405280939291908181526020018383808284378201915050505050509192919290803590602001909291905050506105b7565b005b34801561018057600080fd5b506101896108a2565b6040518082815260200191505060405180910390f35b3480156101ab57600080fd5b506101ca600480360381019080803590602001909291905050506108ab565b005b6101ea60048036038101908080359060200190929190505050610bc5565b005b3480156101f857600080fd5b5061021760048036038101908080359060200190929190505050610eec565b60405180806020018673ffffffffffffffffffffffffffffffffffffffff1673ffffffffffffffffffffffffffffffffffffffff1681526020018573ffffffffffffffffffffffffffffffffffffffff1673ffffffffffffffffffffffffffffffffffffffff16815260200184815260200183151515158152602001828103825287818151815260200191508051906020019080838360005b838110156102cb5780820151818401526020810190506102b0565b50505050905090810190601f1680156102f85780820380516001836020036101000a031916815260200191505b50965050505050505060405180910390f35b34801561031657600080fd5b50610355600480360381019080803573ffffffffffffffffffffffffffffffffffffffff16906020019092919080359060200190929190505050611007565b604051808273ffffffffffffffffffffffffffffffffffffffff1673ffffffffffffffffffffffffffffffffffffffff16815260200191505060405180910390f35b3480156103a357600080fd5b506103c260048036038101908080359060200190929190505050611054565b60405180806020018673ffffffffffffffffffffffffffffffffffffffff1673ffffffffffffffffffffffffffffffffffffffff1681526020018573ffffffffffffffffffffffffffffffffffffffff1673ffffffffffffffffffffffffffffffffffffffff16815260200184815260200183151515158152602001828103825287818151815260200191508051906020019080838360005b8381101561047657808201518184015260208101905061045b565b50505050905090810190601f1680156104a35780820380516001836020036101000a031916815260200191505b50965050505050505060405180910390f35b3480156104c157600080fd5b506104f6600480360381019080803573ffffffffffffffffffffffffffffffffffffffff169060200190929190505050611228565b005b60005481565b8061050981336112e4565b151561051457600080fd5b3373ffffffffffffffffffffffffffffffffffffffff166002600084815260200190815260200160002060010160009054906101000a900473ffffffffffffffffffffffffffffffffffffffff1673ffffffffffffffffffffffffffffffffffffffff1614151561058457600080fd5b60016002600084815260200190815260200160002060040160006101000a81548160ff0219169083151502179055505050565b6105bf61147b565b6000808154809291906001019190505550600260008054815260200190815260200160002060a06040519081016040529081600082018054600181600116156101000203166002900480601f0160208091040260200160405190810160405280929190818152602001828054600181600116156101000203166002900480156106895780601f1061065e57610100808354040283529160200191610689565b820191906000526020600020905b81548152906001019060200180831161066c57829003601f168201915b505050505081526020016001820160009054906101000a900473ffffffffffffffffffffffffffffffffffffffff1673ffffffffffffffffffffffffffffffffffffffff1673ffffffffffffffffffffffffffffffffffffffff1681526020016002820160009054906101000a900473ffffffffffffffffffffffffffffffffffffffff1673ffffffffffffffffffffffffffffffffffffffff1673ffffffffffffffffffffffffffffffffffffffff168152602001600382015481526020016004820160009054906101000a900460ff161515151581525050905082816000018190525033816040019073ffffffffffffffffffffffffffffffffffffffff16908173ffffffffffffffffffffffffffffffffffffffff16815250508181606001818152505080600260008054815260200190815260200160002060008201518160000190805190602001906107e19291906114d9565b5060208201518160010160006101000a81548173ffffffffffffffffffffffffffffffffffffffff021916908373ffffffffffffffffffffffffffffffffffffffff16021790555060408201518160020160006101000a81548173ffffffffffffffffffffffffffffffffffffffff021916908373ffffffffffffffffffffffffffffffffffffffff1602179055506060820151816003015560808201518160040160006101000a81548160ff021916908315150217905550905050505050565b60008054905090565b6108b361147b565b816108be81336112e4565b15156108c957600080fd5b6002600084815260200190815260200160002060a06040519081016040529081600082018054600181600116156101000203166002900480601f0160208091040260200160405190810160405280929190818152602001828054600181600116156101000203166002900480156109815780601f1061095657610100808354040283529160200191610981565b820191906000526020600020905b81548152906001019060200180831161096457829003601f168201915b505050505081526020016001820160009054906101000a900473ffffffffffffffffffffffffffffffffffffffff1673ffffffffffffffffffffffffffffffffffffffff1673ffffffffffffffffffffffffffffffffffffffff1681526020016002820160009054906101000a900473ffffffffffffffffffffffffffffffffffffffff1673ffffffffffffffffffffffffffffffffffffffff1673ffffffffffffffffffffffffffffffffffffffff168152602001600382015481526020016004820160009054906101000a900460ff1615151515815250509150600073ffffffffffffffffffffffffffffffffffffffff16826020015173ffffffffffffffffffffffffffffffffffffffff16141515610a9c57600080fd5b33826020019073ffffffffffffffffffffffffffffffffffffffff16908173ffffffffffffffffffffffffffffffffffffffff168152505081600260008581526020019081526020016000206000820151816000019080519060200190610b049291906114d9565b5060208201518160010160006101000a81548173ffffffffffffffffffffffffffffffffffffffff021916908373ffffffffffffffffffffffffffffffffffffffff16021790555060408201518160020160006101000a81548173ffffffffffffffffffffffffffffffffffffffff021916908373ffffffffffffffffffffffffffffffffffffffff1602179055506060820151816003015560808201518160040160006101000a81548160ff021916908315150217905550905050505050565b610bcd61147b565b60008260006002600083815260200190815260200160002060020160009054906101000a900473ffffffffffffffffffffffffffffffffffffffff1690508073ffffffffffffffffffffffffffffffffffffffff163373ffffffffffffffffffffffffffffffffffffffff16141515610c4557600080fd5b6002600086815260200190815260200160002060030154803410151515610c6b57600080fd5b6002600087815260200190815260200160002060a06040519081016040529081600082018054600181600116156101000203166002900480601f016020809104026020016040519081016040528092919081815260200182805460018160011615610100020316600290048015610d235780601f10610cf857610100808354040283529160200191610d23565b820191906000526020600020905b815481529060010190602001808311610d0657829003601f168201915b505050505081526020016001820160009054906101000a900473ffffffffffffffffffffffffffffffffffffffff1673ffffffffffffffffffffffffffffffffffffffff1673ffffffffffffffffffffffffffffffffffffffff1681526020016002820160009054906101000a900473ffffffffffffffffffffffffffffffffffffffff1673ffffffffffffffffffffffffffffffffffffffff1673ffffffffffffffffffffffffffffffffffffffff168152602001600382015481526020016004820160009054906101000a900460ff161515151581525050945084608001511515610e0f57600080fd5b846060015134039350846020015173ffffffffffffffffffffffffffffffffffffffff166108fc86606001519081150290604051600060405180830381858888f19350505050158015610e66573d6000803e3d6000fd5b506002600087815260200190815260200160002060020160009054906101000a900473ffffffffffffffffffffffffffffffffffffffff1673ffffffffffffffffffffffffffffffffffffffff166108fc859081150290604051600060405180830381858888f19350505050158015610ee3573d6000803e3d6000fd5b50505050505050565b6002602052806000526040600020600091509050806000018054600181600116156101000203166002900480601f016020809104026020016040519081016040528092919081815260200182805460018160011615610100020316600290048015610f985780601f10610f6d57610100808354040283529160200191610f98565b820191906000526020600020905b815481529060010190602001808311610f7b57829003601f168201915b5050505050908060010160009054906101000a900473ffffffffffffffffffffffffffffffffffffffff16908060020160009054906101000a900473ffffffffffffffffffffffffffffffffffffffff16908060030154908060040160009054906101000a900460ff16905085565b60016020528160005260406000208181548110151561102257fe5b906000526020600020016000915091509054906101000a900473ffffffffffffffffffffffffffffffffffffffff1681565b606060008060008061106461147b565b6002600088815260200190815260200160002060a06040519081016040529081600082018054600181600116156101000203166002900480601f01602080910402602001604051908101604052809291908181526020018280546001816001161561010002031660029004801561111c5780601f106110f15761010080835404028352916020019161111c565b820191906000526020600020905b8154815290600101906020018083116110ff57829003601f168201915b505050505081526020016001820160009054906101000a900473ffffffffffffffffffffffffffffffffffffffff1673ffffffffffffffffffffffffffffffffffffffff1673ffffffffffffffffffffffffffffffffffffffff1681526020016002820160009054906101000a900473ffffffffffffffffffffffffffffffffffffffff1673ffffffffffffffffffffffffffffffffffffffff1673ffffffffffffffffffffffffffffffffffffffff168152602001600382015481526020016004820160009054906101000a900460ff161515151581525050905080600001518160400151826020015183606001518460800151849450955095509550955095505091939590929450565b6112323382611333565b15151561123e57600080fd5b600160003373ffffffffffffffffffffffffffffffffffffffff1673ffffffffffffffffffffffffffffffffffffffff1681526020019081526020016000208190806001815401808255809150509060018203906000526020600020016000909192909190916101000a81548173ffffffffffffffffffffffffffffffffffffffff021916908373ffffffffffffffffffffffffffffffffffffffff1602179055505050565b6000806002600085815260200190815260200160002060020160009054906101000a900473ffffffffffffffffffffffffffffffffffffffff16905061132a8184611333565b91505092915050565b600060606000600160008673ffffffffffffffffffffffffffffffffffffffff1673ffffffffffffffffffffffffffffffffffffffff1681526020019081526020016000208054806020026020016040519081016040528092919081815260200182805480156113f857602002820191906000526020600020905b8160009054906101000a900473ffffffffffffffffffffffffffffffffffffffff1673ffffffffffffffffffffffffffffffffffffffff16815260200190600101908083116113ae575b50505050509150600090505b815181101561146e57818181518110151561141b57fe5b9060200190602002015173ffffffffffffffffffffffffffffffffffffffff168473ffffffffffffffffffffffffffffffffffffffff1614156114615760019250611473565b8080600101915050611404565b600092505b505092915050565b60a06040519081016040528060608152602001600073ffffffffffffffffffffffffffffffffffffffff168152602001600073ffffffffffffffffffffffffffffffffffffffff168152602001600081526020016000151581525090565b828054600181600116156101000203166002900490600052602060002090601f016020900481019282601f1061151a57805160ff1916838001178555611548565b82800160010185558215611548579182015b8281111561154757825182559160200191906001019061152c565b5b5090506115559190611559565b5090565b61157b91905b8082111561157757600081600090555060010161155f565b5090565b905600a165627a7a72305820df3a73c92a9a1d7662823df86a83fa1c82d8d8813460f9f02f39555b579936bc0029",
  "source": "pragma solidity ^0.4.15;\r\nimport './TaskHelper.sol';\r\n\r\n/**@title */\r\ncontract TaskManager is TaskHelper {\r\n    \r\n    modifier correctChild(uint id) {\r\n        require(doesChildBelongsToTask(id,msg.sender));\r\n        _;\r\n    }\r\n    modifier onlyParent(uint id) {\r\n        address parent = id_to_task[id].parent;\r\n        require(msg.sender==parent);\r\n        _;\r\n    }\r\n    \r\n    modifier checkEnough(uint _price) { \r\n        require(msg.value >= _price); \r\n        _;\r\n    }\r\n\r\n\t/** @notice create a new task\r\n\t  * @dev initialize a struct Task and save it on a mapping with \r\n\t\tcorresponding id\r\n      * @param _ipfsHash the ipfsHash where Task data is stored.\r\n      * @param payment payment (in unit of wei).\r\n\t  */\r\n    function addTask(string _ipfsHash, uint payment) public {\r\n        task_id++;  //use safemath.     \r\n        Task memory task = id_to_task[task_id];\r\n        task.ipfsHash = _ipfsHash;\r\n        task.parent = msg.sender;\r\n        task.payment = payment;\r\n        id_to_task[task_id] = task;\r\n    } \r\n    \r\n\t/** @notice parent adds the children, who can do tasks for them.\t\r\n\t  * @dev child address added to a mapping parent_to_children if \r\n\t\tnot already added.\r\n      * @param child address of the child\r\n\t  */\r\n    function addChildren(address child) {\r\n        //don't allow to add same child again!\r\n        require(!doesChildBelongsToParent(msg.sender, child)); \r\n        parent_to_children[msg.sender].push(child);\r\n    }\r\n    \r\n\t/** @notice a child confirms that he/she is doing the task\t\r\n\t  * @dev in the task struct for the id, child's address is \r\n\t\tstored if no other child is doing the task. \r\n      * @param _taskId the task id\r\n\t  */\r\n    function doingATask(uint _taskId) correctChild(_taskId) {\r\n        Task memory task = id_to_task[_taskId];\r\n        require(task.childDoing==0x0000000000000000000000000000000000000000);\r\n        task.childDoing = msg.sender;\r\n        id_to_task[_taskId] = task;\r\n    }\r\n\t\r\n\t/** @dev set task as completed, provided msg.sender was doing the task\r\n      * @param id the task id\r\n\t  */    \r\n    function completedATask(uint id) correctChild(id) {\r\n        require(id_to_task[id].childDoing == msg.sender);\r\n        id_to_task[id].completed = true;\r\n    }\r\n    \r\n\t/** @notice parent verifies the task and pays.\r\n\t  * @dev  must check that the right parent/address calls the method, \r\n\t\tpays enough. Also refund amount if extra.\r\n      * @param id the task id\r\n\t  */\r\n    function verifyTask(uint id) payable\r\n        onlyParent(id) \r\n        checkEnough(id_to_task[id].payment)\r\n        {        \r\n        Task memory task = id_to_task[id];    \r\n        require(task.completed);        \r\n        uint amountToRefund = msg.value - task.payment;\r\n        task.childDoing.transfer(task.payment);\r\n        //also transfer any extra funds back to sender (parent)\r\n        id_to_task[id].parent.transfer(amountToRefund);\r\n    }\r\n}",
  "sourcePath": "C:\\Users\\Rahul\\Desktop\\finalProj\\contracts\\TaskManager.sol",
  "compiler": {
    "name": "solc",
    "version": "0.4.24+commit.e67f0147.Emscripten.clang"
  },
  "schemaVersion": "2.0.0",
  "updatedAt": "2018-07-17T17:11:29.631Z"
}