{
  "contractName": "TaskManager",
  "abi": [
    {
      "constant": true,
      "inputs": [
        {
          "name": "",
          "type": "uint256"
        }
      ],
      "name": "idToTask",
      "outputs": [
        {
          "name": "ipfsHash",
          "type": "string"
        },
        {
          "name": "childDoing",
          "type": "address"
        },
        {
          "name": "parent",
          "type": "address"
        },
        {
          "name": "completed",
          "type": "bool"
        },
        {
          "name": "verified",
          "type": "bool"
        }
      ],
      "payable": false,
      "stateMutability": "view",
      "type": "function"
    },
    {
      "constant": true,
      "inputs": [],
      "name": "task_id",
      "outputs": [
        {
          "name": "",
          "type": "uint256"
        }
      ],
      "payable": false,
      "stateMutability": "view",
      "type": "function"
    },
    {
      "constant": true,
      "inputs": [],
      "name": "getLatestTaskId",
      "outputs": [
        {
          "name": "",
          "type": "uint256"
        }
      ],
      "payable": false,
      "stateMutability": "view",
      "type": "function"
    },
    {
      "constant": false,
      "inputs": [],
      "name": "unpause",
      "outputs": [],
      "payable": false,
      "stateMutability": "nonpayable",
      "type": "function"
    },
    {
      "constant": true,
      "inputs": [
        {
          "name": "",
          "type": "address"
        },
        {
          "name": "",
          "type": "uint256"
        }
      ],
      "name": "parentToChildren",
      "outputs": [
        {
          "name": "",
          "type": "address"
        }
      ],
      "payable": false,
      "stateMutability": "view",
      "type": "function"
    },
    {
      "constant": true,
      "inputs": [],
      "name": "paused",
      "outputs": [
        {
          "name": "",
          "type": "bool"
        }
      ],
      "payable": false,
      "stateMutability": "view",
      "type": "function"
    },
    {
      "constant": false,
      "inputs": [],
      "name": "pause",
      "outputs": [],
      "payable": false,
      "stateMutability": "nonpayable",
      "type": "function"
    },
    {
      "constant": true,
      "inputs": [],
      "name": "owner",
      "outputs": [
        {
          "name": "",
          "type": "address"
        }
      ],
      "payable": false,
      "stateMutability": "view",
      "type": "function"
    },
    {
      "constant": true,
      "inputs": [
        {
          "name": "id",
          "type": "uint256"
        }
      ],
      "name": "getCorrespondingTask",
      "outputs": [
        {
          "name": "",
          "type": "string"
        },
        {
          "name": "",
          "type": "address"
        },
        {
          "name": "",
          "type": "address"
        },
        {
          "name": "",
          "type": "bool"
        },
        {
          "name": "",
          "type": "bool"
        }
      ],
      "payable": false,
      "stateMutability": "view",
      "type": "function"
    },
    {
      "constant": false,
      "inputs": [
        {
          "name": "newOwner",
          "type": "address"
        }
      ],
      "name": "transferOwnership",
      "outputs": [],
      "payable": false,
      "stateMutability": "nonpayable",
      "type": "function"
    },
    {
      "anonymous": false,
      "inputs": [
        {
          "indexed": false,
          "name": "id",
          "type": "uint256"
        },
        {
          "indexed": true,
          "name": "parent",
          "type": "address"
        }
      ],
      "name": "TaskCreated",
      "type": "event"
    },
    {
      "anonymous": false,
      "inputs": [
        {
          "indexed": false,
          "name": "id",
          "type": "uint256"
        },
        {
          "indexed": true,
          "name": "childDoing",
          "type": "address"
        }
      ],
      "name": "TaskDoing",
      "type": "event"
    },
    {
      "anonymous": false,
      "inputs": [
        {
          "indexed": false,
          "name": "id",
          "type": "uint256"
        },
        {
          "indexed": true,
          "name": "childDoing",
          "type": "address"
        }
      ],
      "name": "TaskCompleted",
      "type": "event"
    },
    {
      "anonymous": false,
      "inputs": [],
      "name": "Pause",
      "type": "event"
    },
    {
      "anonymous": false,
      "inputs": [],
      "name": "Unpause",
      "type": "event"
    },
    {
      "anonymous": false,
      "inputs": [
        {
          "indexed": true,
          "name": "previousOwner",
          "type": "address"
        },
        {
          "indexed": true,
          "name": "newOwner",
          "type": "address"
        }
      ],
      "name": "OwnershipTransferred",
      "type": "event"
    },
    {
      "constant": false,
      "inputs": [
        {
          "name": "_ipfsHash",
          "type": "string"
        }
      ],
      "name": "addTask",
      "outputs": [],
      "payable": false,
      "stateMutability": "nonpayable",
      "type": "function"
    },
    {
      "constant": false,
      "inputs": [
        {
          "name": "child",
          "type": "address"
        }
      ],
      "name": "addChildren",
      "outputs": [],
      "payable": false,
      "stateMutability": "nonpayable",
      "type": "function"
    },
    {
      "constant": false,
      "inputs": [
        {
          "name": "_taskId",
          "type": "uint256"
        }
      ],
      "name": "doingATask",
      "outputs": [],
      "payable": false,
      "stateMutability": "nonpayable",
      "type": "function"
    },
    {
      "constant": false,
      "inputs": [
        {
          "name": "id",
          "type": "uint256"
        }
      ],
      "name": "completedATask",
      "outputs": [],
      "payable": false,
      "stateMutability": "nonpayable",
      "type": "function"
    },
    {
      "constant": false,
      "inputs": [
        {
          "name": "id",
          "type": "uint256"
        }
      ],
      "name": "verifyTask",
      "outputs": [],
      "payable": true,
      "stateMutability": "payable",
      "type": "function"
    }
  ],
  "bytecode": "0x608060405260008060146101000a81548160ff021916908315150217905550336000806101000a81548173ffffffffffffffffffffffffffffffffffffffff021916908373ffffffffffffffffffffffffffffffffffffffff1602179055506117e58061006d6000396000f3006080604052600436106100db576000357c0100000000000000000000000000000000000000000000000000000000900463ffffffff1680631c8187a6146100e05780632165efd214610202578063272a41e51461022d578063386e8dd31461025a5780633f4ba83a1461028557806341a7c55b1461029c5780634fe64cb7146103295780635573e3ef146103565780635c975abb1461037657806367238562146103a55780638456cb591461040e5780638da5cb5b14610425578063b33477ac1461047c578063ed1751291461059e578063f2fde38b146105e1575b600080fd5b3480156100ec57600080fd5b5061010b60048036038101908080359060200190929190505050610624565b60405180806020018673ffffffffffffffffffffffffffffffffffffffff1673ffffffffffffffffffffffffffffffffffffffff1681526020018573ffffffffffffffffffffffffffffffffffffffff1673ffffffffffffffffffffffffffffffffffffffff1681526020018415151515815260200183151515158152602001828103825287818151815260200191508051906020019080838360005b838110156101c35780820151818401526020810190506101a8565b50505050905090810190601f1680156101f05780820380516001836020036101000a031916815260200191505b50965050505050505060405180910390f35b34801561020e57600080fd5b5061021761074c565b6040518082815260200191505060405180910390f35b34801561023957600080fd5b5061025860048036038101908080359060200190929190505050610752565b005b34801561026657600080fd5b5061026f610875565b6040518082815260200191505060405180910390f35b34801561029157600080fd5b5061029a61087f565b005b3480156102a857600080fd5b506102e7600480360381019080803573ffffffffffffffffffffffffffffffffffffffff1690602001909291908035906020019092919050505061093d565b604051808273ffffffffffffffffffffffffffffffffffffffff1673ffffffffffffffffffffffffffffffffffffffff16815260200191505060405180910390f35b34801561033557600080fd5b506103546004803603810190808035906020019092919050505061098a565b005b61037460048036038101908080359060200190929190505050610ad4565b005b34801561038257600080fd5b5061038b610c76565b604051808215151515815260200191505060405180910390f35b3480156103b157600080fd5b5061040c600480360381019080803590602001908201803590602001908080601f0160208091040260200160405190810160405280939291908181526020018383808284378201915050505050509192919290505050610c89565b005b34801561041a57600080fd5b50610423611008565b005b34801561043157600080fd5b5061043a6110c8565b604051808273ffffffffffffffffffffffffffffffffffffffff1673ffffffffffffffffffffffffffffffffffffffff16815260200191505060405180910390f35b34801561048857600080fd5b506104a7600480360381019080803590602001909291905050506110ed565b60405180806020018673ffffffffffffffffffffffffffffffffffffffff1673ffffffffffffffffffffffffffffffffffffffff1681526020018573ffffffffffffffffffffffffffffffffffffffff1673ffffffffffffffffffffffffffffffffffffffff1681526020018415151515815260200183151515158152602001828103825287818151815260200191508051906020019080838360005b8381101561055f578082015181840152602081019050610544565b50505050905090810190601f16801561058c5780820380516001836020036101000a031916815260200191505b50965050505050505060405180910390f35b3480156105aa57600080fd5b506105df600480360381019080803573ffffffffffffffffffffffffffffffffffffffff1690602001909291905050506112d2565b005b3480156105ed57600080fd5b50610622600480360381019080803573ffffffffffffffffffffffffffffffffffffffff1690602001909291905050506113aa565b005b6003602052806000526040600020600091509050806000018054600181600116156101000203166002900480601f0160208091040260200160405190810160405280929190818152602001828054600181600116156101000203166002900480156106d05780601f106106a5576101008083540402835291602001916106d0565b820191906000526020600020905b8154815290600101906020018083116106b357829003601f168201915b5050505050908060010160009054906101000a900473ffffffffffffffffffffffffffffffffffffffff16908060020160009054906101000a900473ffffffffffffffffffffffffffffffffffffffff16908060020160149054906101000a900460ff16908060020160159054906101000a900460ff16905085565b60015481565b600060149054906101000a900460ff1615151561076e57600080fd5b8061077981336114ff565b151561078457600080fd5b3373ffffffffffffffffffffffffffffffffffffffff166003600084815260200190815260200160002060010160009054906101000a900473ffffffffffffffffffffffffffffffffffffffff1673ffffffffffffffffffffffffffffffffffffffff161415156107f457600080fd5b60016003600084815260200190815260200160002060020160146101000a81548160ff0219169083151502179055503373ffffffffffffffffffffffffffffffffffffffff167fbb5889c77948badf90e8a5c73d55265e5f5d6e4837a79a78c5669691b897faed836040518082815260200191505060405180910390a25050565b6000600154905090565b6000809054906101000a900473ffffffffffffffffffffffffffffffffffffffff1673ffffffffffffffffffffffffffffffffffffffff163373ffffffffffffffffffffffffffffffffffffffff161415156108da57600080fd5b600060149054906101000a900460ff1615156108f557600080fd5b60008060146101000a81548160ff0219169083151502179055507f7805862f689e2f13df9f062ff482ad3ad112aca9e0847911ed832e158c525b3360405160405180910390a1565b60026020528160005260406000208181548110151561095857fe5b906000526020600020016000915091509054906101000a900473ffffffffffffffffffffffffffffffffffffffff1681565b600060149054906101000a900460ff161515156109a657600080fd5b806109b181336114ff565b15156109bc57600080fd5b600073ffffffffffffffffffffffffffffffffffffffff166003600084815260200190815260200160002060010160009054906101000a900473ffffffffffffffffffffffffffffffffffffffff1673ffffffffffffffffffffffffffffffffffffffff16141515610a2d57600080fd5b336003600084815260200190815260200160002060010160006101000a81548173ffffffffffffffffffffffffffffffffffffffff021916908373ffffffffffffffffffffffffffffffffffffffff1602179055503373ffffffffffffffffffffffffffffffffffffffff167ffbdd986515d16aa91bc14fc46f7e6bf5d60fad3e45de25188f04c57811c0d769836040518082815260200191505060405180910390a25050565b600060149054906101000a900460ff16151515610af057600080fd5b8060006003600083815260200190815260200160002060020160009054906101000a900473ffffffffffffffffffffffffffffffffffffffff1690508073ffffffffffffffffffffffffffffffffffffffff163373ffffffffffffffffffffffffffffffffffffffff16141515610b6657600080fd5b6003600084815260200190815260200160002060020160149054906101000a900460ff161515610b9557600080fd5b6003600084815260200190815260200160002060020160159054906101000a900460ff16151515610bc557600080fd5b60016003600085815260200190815260200160002060020160156101000a81548160ff0219169083151502179055506003600084815260200190815260200160002060010160009054906101000a900473ffffffffffffffffffffffffffffffffffffffff1673ffffffffffffffffffffffffffffffffffffffff166108fc349081150290604051600060405180830381858888f19350505050158015610c70573d6000803e3d6000fd5b50505050565b600060149054906101000a900460ff1681565b610c916116b4565b600060149054906101000a900460ff16151515610cad57600080fd5b610cc26001805461154e90919063ffffffff16565b60018190555060036000600154815260200190815260200160002060a06040519081016040529081600082018054600181600116156101000203166002900480601f016020809104026020016040519081016040528092919081815260200182805460018160011615610100020316600290048015610d825780601f10610d5757610100808354040283529160200191610d82565b820191906000526020600020905b815481529060010190602001808311610d6557829003601f168201915b505050505081526020016001820160009054906101000a900473ffffffffffffffffffffffffffffffffffffffff1673ffffffffffffffffffffffffffffffffffffffff1673ffffffffffffffffffffffffffffffffffffffff1681526020016002820160009054906101000a900473ffffffffffffffffffffffffffffffffffffffff1673ffffffffffffffffffffffffffffffffffffffff1673ffffffffffffffffffffffffffffffffffffffff1681526020016002820160149054906101000a900460ff161515151581526020016002820160159054906101000a900460ff161515151581525050905081816000018190525033816040019073ffffffffffffffffffffffffffffffffffffffff16908173ffffffffffffffffffffffffffffffffffffffff1681525050806003600060015481526020019081526020016000206000820151816000019080519060200190610ee2929190611714565b5060208201518160010160006101000a81548173ffffffffffffffffffffffffffffffffffffffff021916908373ffffffffffffffffffffffffffffffffffffffff16021790555060408201518160020160006101000a81548173ffffffffffffffffffffffffffffffffffffffff021916908373ffffffffffffffffffffffffffffffffffffffff16021790555060608201518160020160146101000a81548160ff02191690831515021790555060808201518160020160156101000a81548160ff0219169083151502179055509050503373ffffffffffffffffffffffffffffffffffffffff167fe9ee39160568153d230ca0e29961267415d513defbb7d3b21af0fe940e1ebd156001546040518082815260200191505060405180910390a25050565b6000809054906101000a900473ffffffffffffffffffffffffffffffffffffffff1673ffffffffffffffffffffffffffffffffffffffff163373ffffffffffffffffffffffffffffffffffffffff1614151561106357600080fd5b600060149054906101000a900460ff1615151561107f57600080fd5b6001600060146101000a81548160ff0219169083151502179055507f6985a02210a168e66602d3235cb6db0e70f92b3ba4d376a33c0f3d9434bff62560405160405180910390a1565b6000809054906101000a900473ffffffffffffffffffffffffffffffffffffffff1681565b60606000806000806110fd6116b4565b6003600088815260200190815260200160002060a06040519081016040529081600082018054600181600116156101000203166002900480601f0160208091040260200160405190810160405280929190818152602001828054600181600116156101000203166002900480156111b55780601f1061118a576101008083540402835291602001916111b5565b820191906000526020600020905b81548152906001019060200180831161119857829003601f168201915b505050505081526020016001820160009054906101000a900473ffffffffffffffffffffffffffffffffffffffff1673ffffffffffffffffffffffffffffffffffffffff1673ffffffffffffffffffffffffffffffffffffffff1681526020016002820160009054906101000a900473ffffffffffffffffffffffffffffffffffffffff1673ffffffffffffffffffffffffffffffffffffffff1673ffffffffffffffffffffffffffffffffffffffff1681526020016002820160149054906101000a900460ff161515151581526020016002820160159054906101000a900460ff161515151581525050905080600001518160400151826020015183606001518460800151849450955095509550955095505091939590929450565b600060149054906101000a900460ff161515156112ee57600080fd5b6112f8338261156c565b15151561130457600080fd5b600260003373ffffffffffffffffffffffffffffffffffffffff1673ffffffffffffffffffffffffffffffffffffffff1681526020019081526020016000208190806001815401808255809150509060018203906000526020600020016000909192909190916101000a81548173ffffffffffffffffffffffffffffffffffffffff021916908373ffffffffffffffffffffffffffffffffffffffff1602179055505050565b6000809054906101000a900473ffffffffffffffffffffffffffffffffffffffff1673ffffffffffffffffffffffffffffffffffffffff163373ffffffffffffffffffffffffffffffffffffffff1614151561140557600080fd5b600073ffffffffffffffffffffffffffffffffffffffff168173ffffffffffffffffffffffffffffffffffffffff161415151561144157600080fd5b8073ffffffffffffffffffffffffffffffffffffffff166000809054906101000a900473ffffffffffffffffffffffffffffffffffffffff1673ffffffffffffffffffffffffffffffffffffffff167f8be0079c531659141344cd1fd0a4f28419497f9722a3daafe3b4186f6b6457e060405160405180910390a3806000806101000a81548173ffffffffffffffffffffffffffffffffffffffff021916908373ffffffffffffffffffffffffffffffffffffffff16021790555050565b6000806003600085815260200190815260200160002060020160009054906101000a900473ffffffffffffffffffffffffffffffffffffffff169050611545818461156c565b91505092915050565b600080828401905083811015151561156257fe5b8091505092915050565b600060606000600260008673ffffffffffffffffffffffffffffffffffffffff1673ffffffffffffffffffffffffffffffffffffffff16815260200190815260200160002080548060200260200160405190810160405280929190818152602001828054801561163157602002820191906000526020600020905b8160009054906101000a900473ffffffffffffffffffffffffffffffffffffffff1673ffffffffffffffffffffffffffffffffffffffff16815260200190600101908083116115e7575b50505050509150600090505b81518110156116a757818181518110151561165457fe5b9060200190602002015173ffffffffffffffffffffffffffffffffffffffff168473ffffffffffffffffffffffffffffffffffffffff16141561169a57600192506116ac565b808060010191505061163d565b600092505b505092915050565b60a06040519081016040528060608152602001600073ffffffffffffffffffffffffffffffffffffffff168152602001600073ffffffffffffffffffffffffffffffffffffffff1681526020016000151581526020016000151581525090565b828054600181600116156101000203166002900490600052602060002090601f016020900481019282601f1061175557805160ff1916838001178555611783565b82800160010185558215611783579182015b82811115611782578251825591602001919060010190611767565b5b5090506117909190611794565b5090565b6117b691905b808211156117b257600081600090555060010161179a565b5090565b905600a165627a7a7230582076c209664003dac69a25178923a9d20b47419b43869fa7ee665bef8daa6a859f0029",
  "source": "pragma solidity ^0.4.24;\r\nimport './TaskHelper.sol';\r\n\r\n\r\n/**\r\n * @title TaskManager\r\n * @dev This contract has all the critical methods that work with handling the\r\n * tasks, modifying the struct variable, using different methods that the user can do.\r\n */\r\ncontract TaskManager is TaskHelper {\r\n\r\n\tusing SafeMath for uint;\r\n\t\r\n\t//events\r\n\tevent TaskCreated(uint id, address indexed parent);\r\n\tevent TaskDoing(uint id, address indexed childDoing);\r\n\tevent TaskCompleted(uint id, address indexed childDoing);\r\n    \r\n    modifier correctChild(uint id) {\r\n        require(doesChildBelongsToTask(id,msg.sender));\r\n        _;\r\n    }\r\n    modifier onlyParent(uint id) {\r\n        address parent = idToTask[id].parent;\r\n        require(msg.sender==parent);\r\n        _;\r\n    }\r\n\r\n\t/** @notice create a new task\r\n\t  * @dev initialize a struct Task and save it on a mapping with \r\n\t\tcorresponding id\r\n      * @param _ipfsHash the ipfsHash where Task data is stored.\r\n\t  */\r\n    function addTask(string _ipfsHash) public whenNotPaused {\r\n        task_id = task_id.add(1); //use safemath.     \r\n        Task memory task = idToTask[task_id];\r\n        task.ipfsHash = _ipfsHash;\r\n        task.parent = msg.sender;\r\n        idToTask[task_id] = task;\r\n\t\temit TaskCreated(task_id, msg.sender);\r\n    } \r\n    \r\n\t/** @notice parent adds the children, who can do tasks for them.\t\r\n\t  * @dev child address added to a mapping parentToChildren if \r\n\t\tnot already added.\r\n      * @param child address of the child\r\n\t  */\r\n    function addChildren(address child) public whenNotPaused {\r\n        //don't allow to add same child again!\r\n        require(!doesChildBelongsToParent(msg.sender, child)); \r\n        parentToChildren[msg.sender].push(child);\r\n    }\r\n    \r\n\t/** @notice a child confirms that he/she is doing the task\t\r\n\t  * @dev in the task struct for the id, child's address is \r\n\t\tstored if no other child is doing the task. \r\n      * @param _taskId the task id\r\n\t  */\r\n    function doingATask(uint _taskId) public whenNotPaused correctChild(_taskId) {\r\n        require(idToTask[_taskId].childDoing==0x0000000000000000000000000000000000000000);\r\n        idToTask[_taskId].childDoing = msg.sender;\r\n\t\temit TaskDoing(_taskId, msg.sender);\r\n    }\r\n\t\r\n\t/** @dev set task as completed, provided msg.sender was doing the task\r\n      * @param id the task id\r\n\t  */    \r\n    function completedATask(uint id) public whenNotPaused correctChild(id) {\r\n        require(idToTask[id].childDoing == msg.sender);\r\n        idToTask[id].completed = true;\r\n\t\temit TaskCompleted(id, msg.sender);\r\n    }\r\n    \r\n\t/** @notice parent verifies the task and pays.\r\n\t  * @dev  must check that the right parent/address calls the method, \r\n\t\tand pays an amount.\r\n      * @param id the task id\r\n\t  */\r\n    function verifyTask(uint id) public payable whenNotPaused onlyParent(id) {        \r\n        require(idToTask[id].completed);\r\n\t\trequire(!idToTask[id].verified);\r\n\t\tidToTask[id].verified = true;\r\n        idToTask[id].childDoing.transfer(msg.value);\r\n    }\r\n}",
  "sourcePath": "/home/rahul/Desktop/finalProj/contracts/TaskManager.sol",
  "compiler": {
    "name": "solc",
    "version": "0.4.24+commit.e67f0147.Emscripten.clang"
  },
  "schemaVersion": "2.0.1",
  "updatedAt": "2018-08-08T12:39:15.050Z"
}