{
  "contractName": "TaskManager",
  "abi": [
    {
      "constant": true,
      "inputs": [],
      "name": "task_id",
      "outputs": [
        {
          "name": "",
          "type": "uint256"
        }
      ],
      "payable": false,
      "stateMutability": "view",
      "type": "function"
    },
    {
      "constant": true,
      "inputs": [],
      "name": "getLatestTaskId",
      "outputs": [
        {
          "name": "",
          "type": "uint256"
        }
      ],
      "payable": false,
      "stateMutability": "view",
      "type": "function"
    },
    {
      "constant": true,
      "inputs": [
        {
          "name": "",
          "type": "uint256"
        }
      ],
      "name": "id_to_task",
      "outputs": [
        {
          "name": "ipfsHash",
          "type": "string"
        },
        {
          "name": "childDoing",
          "type": "address"
        },
        {
          "name": "parent",
          "type": "address"
        },
        {
          "name": "completed",
          "type": "bool"
        }
      ],
      "payable": false,
      "stateMutability": "view",
      "type": "function"
    },
    {
      "constant": true,
      "inputs": [
        {
          "name": "",
          "type": "address"
        },
        {
          "name": "",
          "type": "uint256"
        }
      ],
      "name": "parent_to_children",
      "outputs": [
        {
          "name": "",
          "type": "address"
        }
      ],
      "payable": false,
      "stateMutability": "view",
      "type": "function"
    },
    {
      "constant": true,
      "inputs": [
        {
          "name": "id",
          "type": "uint256"
        }
      ],
      "name": "getCorrespondingTask",
      "outputs": [
        {
          "name": "",
          "type": "string"
        },
        {
          "name": "",
          "type": "address"
        },
        {
          "name": "",
          "type": "address"
        },
        {
          "name": "",
          "type": "bool"
        }
      ],
      "payable": false,
      "stateMutability": "view",
      "type": "function"
    },
    {
      "constant": false,
      "inputs": [
        {
          "name": "_ipfsHash",
          "type": "string"
        }
      ],
      "name": "addTask",
      "outputs": [],
      "payable": false,
      "stateMutability": "nonpayable",
      "type": "function"
    },
    {
      "constant": false,
      "inputs": [
        {
          "name": "child",
          "type": "address"
        }
      ],
      "name": "addChildren",
      "outputs": [],
      "payable": false,
      "stateMutability": "nonpayable",
      "type": "function"
    },
    {
      "constant": false,
      "inputs": [
        {
          "name": "_taskId",
          "type": "uint256"
        }
      ],
      "name": "doingATask",
      "outputs": [],
      "payable": false,
      "stateMutability": "nonpayable",
      "type": "function"
    },
    {
      "constant": false,
      "inputs": [
        {
          "name": "id",
          "type": "uint256"
        }
      ],
      "name": "completedATask",
      "outputs": [],
      "payable": false,
      "stateMutability": "nonpayable",
      "type": "function"
    },
    {
      "constant": false,
      "inputs": [
        {
          "name": "id",
          "type": "uint256"
        }
      ],
      "name": "verifyTask",
      "outputs": [],
      "payable": true,
      "stateMutability": "payable",
      "type": "function"
    }
  ],
  "bytecode": "0x608060405234801561001057600080fd5b50611480806100206000396000f3006080604052600436106100a4576000357c0100000000000000000000000000000000000000000000000000000000900463ffffffff1680632165efd2146100a9578063272a41e5146100d4578063386e8dd3146101015780634fe64cb71461012c5780635573e3ef14610159578063672385621461017957806370846c03146101e2578063a73fc360146102f9578063b33477ac14610386578063ed1751291461049d575b600080fd5b3480156100b557600080fd5b506100be6104e0565b6040518082815260200191505060405180910390f35b3480156100e057600080fd5b506100ff600480360381019080803590602001909291905050506104e6565b005b34801561010d57600080fd5b5061011661059f565b6040518082815260200191505060405180910390f35b34801561013857600080fd5b50610157600480360381019080803590602001909291905050506105a8565b005b610177600480360381019080803590602001909291905050506108ae565b005b34801561018557600080fd5b506101e0600480360381019080803590602001908201803590602001908080601f0160208091040260200160405190810160405280939291908181526020018383808284378201915050505050509192919290505050610b17565b005b3480156101ee57600080fd5b5061020d60048036038101908080359060200190929190505050610de3565b60405180806020018573ffffffffffffffffffffffffffffffffffffffff1673ffffffffffffffffffffffffffffffffffffffff1681526020018473ffffffffffffffffffffffffffffffffffffffff1673ffffffffffffffffffffffffffffffffffffffff16815260200183151515158152602001828103825286818151815260200191508051906020019080838360005b838110156102bb5780820151818401526020810190506102a0565b50505050905090810190601f1680156102e85780820380516001836020036101000a031916815260200191505b509550505050505060405180910390f35b34801561030557600080fd5b50610344600480360381019080803573ffffffffffffffffffffffffffffffffffffffff16906020019092919080359060200190929190505050610ef8565b604051808273ffffffffffffffffffffffffffffffffffffffff1673ffffffffffffffffffffffffffffffffffffffff16815260200191505060405180910390f35b34801561039257600080fd5b506103b160048036038101908080359060200190929190505050610f45565b60405180806020018573ffffffffffffffffffffffffffffffffffffffff1673ffffffffffffffffffffffffffffffffffffffff1681526020018473ffffffffffffffffffffffffffffffffffffffff1673ffffffffffffffffffffffffffffffffffffffff16815260200183151515158152602001828103825286818151815260200191508051906020019080838360005b8381101561045f578082015181840152602081019050610444565b50505050905090810190601f16801561048c5780820380516001836020036101000a031916815260200191505b509550505050505060405180910390f35b3480156104a957600080fd5b506104de600480360381019080803573ffffffffffffffffffffffffffffffffffffffff169060200190929190505050611105565b005b60005481565b806104f181336111c1565b15156104fc57600080fd5b3373ffffffffffffffffffffffffffffffffffffffff166002600084815260200190815260200160002060010160009054906101000a900473ffffffffffffffffffffffffffffffffffffffff1673ffffffffffffffffffffffffffffffffffffffff1614151561056c57600080fd5b60016002600084815260200190815260200160002060020160146101000a81548160ff0219169083151502179055505050565b60008054905090565b6105b0611358565b816105bb81336111c1565b15156105c657600080fd5b6002600084815260200190815260200160002060806040519081016040529081600082018054600181600116156101000203166002900480601f01602080910402602001604051908101604052809291908181526020018280546001816001161561010002031660029004801561067e5780601f106106535761010080835404028352916020019161067e565b820191906000526020600020905b81548152906001019060200180831161066157829003601f168201915b505050505081526020016001820160009054906101000a900473ffffffffffffffffffffffffffffffffffffffff1673ffffffffffffffffffffffffffffffffffffffff1673ffffffffffffffffffffffffffffffffffffffff1681526020016002820160009054906101000a900473ffffffffffffffffffffffffffffffffffffffff1673ffffffffffffffffffffffffffffffffffffffff1673ffffffffffffffffffffffffffffffffffffffff1681526020016002820160149054906101000a900460ff1615151515815250509150600073ffffffffffffffffffffffffffffffffffffffff16826020015173ffffffffffffffffffffffffffffffffffffffff1614151561078f57600080fd5b33826020019073ffffffffffffffffffffffffffffffffffffffff16908173ffffffffffffffffffffffffffffffffffffffff1681525050816002600085815260200190815260200160002060008201518160000190805190602001906107f79291906113af565b5060208201518160010160006101000a81548173ffffffffffffffffffffffffffffffffffffffff021916908373ffffffffffffffffffffffffffffffffffffffff16021790555060408201518160020160006101000a81548173ffffffffffffffffffffffffffffffffffffffff021916908373ffffffffffffffffffffffffffffffffffffffff16021790555060608201518160020160146101000a81548160ff021916908315150217905550905050505050565b6108b6611358565b8160006002600083815260200190815260200160002060020160009054906101000a900473ffffffffffffffffffffffffffffffffffffffff1690508073ffffffffffffffffffffffffffffffffffffffff163373ffffffffffffffffffffffffffffffffffffffff1614151561092c57600080fd5b6002600085815260200190815260200160002060806040519081016040529081600082018054600181600116156101000203166002900480601f0160208091040260200160405190810160405280929190818152602001828054600181600116156101000203166002900480156109e45780601f106109b9576101008083540402835291602001916109e4565b820191906000526020600020905b8154815290600101906020018083116109c757829003601f168201915b505050505081526020016001820160009054906101000a900473ffffffffffffffffffffffffffffffffffffffff1673ffffffffffffffffffffffffffffffffffffffff1673ffffffffffffffffffffffffffffffffffffffff1681526020016002820160009054906101000a900473ffffffffffffffffffffffffffffffffffffffff1673ffffffffffffffffffffffffffffffffffffffff1673ffffffffffffffffffffffffffffffffffffffff1681526020016002820160149054906101000a900460ff161515151581525050925082606001511515610ac657600080fd5b826020015173ffffffffffffffffffffffffffffffffffffffff166108fc349081150290604051600060405180830381858888f19350505050158015610b10573d6000803e3d6000fd5b5050505050565b610b1f611358565b6000808154809291906001019190505550600260008054815260200190815260200160002060806040519081016040529081600082018054600181600116156101000203166002900480601f016020809104026020016040519081016040528092919081815260200182805460018160011615610100020316600290048015610be95780601f10610bbe57610100808354040283529160200191610be9565b820191906000526020600020905b815481529060010190602001808311610bcc57829003601f168201915b505050505081526020016001820160009054906101000a900473ffffffffffffffffffffffffffffffffffffffff1673ffffffffffffffffffffffffffffffffffffffff1673ffffffffffffffffffffffffffffffffffffffff1681526020016002820160009054906101000a900473ffffffffffffffffffffffffffffffffffffffff1673ffffffffffffffffffffffffffffffffffffffff1673ffffffffffffffffffffffffffffffffffffffff1681526020016002820160149054906101000a900460ff161515151581525050905081816000018190525033816040019073ffffffffffffffffffffffffffffffffffffffff16908173ffffffffffffffffffffffffffffffffffffffff16815250508060026000805481526020019081526020016000206000820151816000019080519060200190610d2d9291906113af565b5060208201518160010160006101000a81548173ffffffffffffffffffffffffffffffffffffffff021916908373ffffffffffffffffffffffffffffffffffffffff16021790555060408201518160020160006101000a81548173ffffffffffffffffffffffffffffffffffffffff021916908373ffffffffffffffffffffffffffffffffffffffff16021790555060608201518160020160146101000a81548160ff0219169083151502179055509050505050565b6002602052806000526040600020600091509050806000018054600181600116156101000203166002900480601f016020809104026020016040519081016040528092919081815260200182805460018160011615610100020316600290048015610e8f5780601f10610e6457610100808354040283529160200191610e8f565b820191906000526020600020905b815481529060010190602001808311610e7257829003601f168201915b5050505050908060010160009054906101000a900473ffffffffffffffffffffffffffffffffffffffff16908060020160009054906101000a900473ffffffffffffffffffffffffffffffffffffffff16908060020160149054906101000a900460ff16905084565b600160205281600052604060002081815481101515610f1357fe5b906000526020600020016000915091509054906101000a900473ffffffffffffffffffffffffffffffffffffffff1681565b60606000806000610f54611358565b6002600087815260200190815260200160002060806040519081016040529081600082018054600181600116156101000203166002900480601f01602080910402602001604051908101604052809291908181526020018280546001816001161561010002031660029004801561100c5780601f10610fe15761010080835404028352916020019161100c565b820191906000526020600020905b815481529060010190602001808311610fef57829003601f168201915b505050505081526020016001820160009054906101000a900473ffffffffffffffffffffffffffffffffffffffff1673ffffffffffffffffffffffffffffffffffffffff1673ffffffffffffffffffffffffffffffffffffffff1681526020016002820160009054906101000a900473ffffffffffffffffffffffffffffffffffffffff1673ffffffffffffffffffffffffffffffffffffffff1673ffffffffffffffffffffffffffffffffffffffff1681526020016002820160149054906101000a900460ff161515151581525050905080600001518160400151826020015183606001518393509450945094509450509193509193565b61110f3382611210565b15151561111b57600080fd5b600160003373ffffffffffffffffffffffffffffffffffffffff1673ffffffffffffffffffffffffffffffffffffffff1681526020019081526020016000208190806001815401808255809150509060018203906000526020600020016000909192909190916101000a81548173ffffffffffffffffffffffffffffffffffffffff021916908373ffffffffffffffffffffffffffffffffffffffff1602179055505050565b6000806002600085815260200190815260200160002060020160009054906101000a900473ffffffffffffffffffffffffffffffffffffffff1690506112078184611210565b91505092915050565b600060606000600160008673ffffffffffffffffffffffffffffffffffffffff1673ffffffffffffffffffffffffffffffffffffffff1681526020019081526020016000208054806020026020016040519081016040528092919081815260200182805480156112d557602002820191906000526020600020905b8160009054906101000a900473ffffffffffffffffffffffffffffffffffffffff1673ffffffffffffffffffffffffffffffffffffffff168152602001906001019080831161128b575b50505050509150600090505b815181101561134b5781818151811015156112f857fe5b9060200190602002015173ffffffffffffffffffffffffffffffffffffffff168473ffffffffffffffffffffffffffffffffffffffff16141561133e5760019250611350565b80806001019150506112e1565b600092505b505092915050565b60806040519081016040528060608152602001600073ffffffffffffffffffffffffffffffffffffffff168152602001600073ffffffffffffffffffffffffffffffffffffffff1681526020016000151581525090565b828054600181600116156101000203166002900490600052602060002090601f016020900481019282601f106113f057805160ff191683800117855561141e565b8280016001018555821561141e579182015b8281111561141d578251825591602001919060010190611402565b5b50905061142b919061142f565b5090565b61145191905b8082111561144d576000816000905550600101611435565b5090565b905600a165627a7a72305820c5bc7335186da14a32e9b1eac22022ba5fcd0b90dbc4c4b912b8ffc8dd4f175d0029",
  "source": "pragma solidity ^0.4.15;\r\nimport './TaskHelper.sol';\r\n\r\n/**@title */\r\ncontract TaskManager is TaskHelper {\r\n    \r\n    modifier correctChild(uint id) {\r\n        require(doesChildBelongsToTask(id,msg.sender));\r\n        _;\r\n    }\r\n    modifier onlyParent(uint id) {\r\n        address parent = id_to_task[id].parent;\r\n        require(msg.sender==parent);\r\n        _;\r\n    }\r\n\r\n\t/** @notice create a new task\r\n\t  * @dev initialize a struct Task and save it on a mapping with \r\n\t\tcorresponding id\r\n      * @param _ipfsHash the ipfsHash where Task data is stored.\r\n\t  */\r\n    function addTask(string _ipfsHash) public {\r\n        task_id++;  //use safemath.     \r\n        Task memory task = id_to_task[task_id];\r\n        task.ipfsHash = _ipfsHash;\r\n        task.parent = msg.sender;\r\n        id_to_task[task_id] = task;\r\n    } \r\n    \r\n\t/** @notice parent adds the children, who can do tasks for them.\t\r\n\t  * @dev child address added to a mapping parent_to_children if \r\n\t\tnot already added.\r\n      * @param child address of the child\r\n\t  */\r\n    function addChildren(address child) {\r\n        //don't allow to add same child again!\r\n        require(!doesChildBelongsToParent(msg.sender, child)); \r\n        parent_to_children[msg.sender].push(child);\r\n    }\r\n    \r\n\t/** @notice a child confirms that he/she is doing the task\t\r\n\t  * @dev in the task struct for the id, child's address is \r\n\t\tstored if no other child is doing the task. \r\n      * @param _taskId the task id\r\n\t  */\r\n    function doingATask(uint _taskId) correctChild(_taskId) {\r\n        Task memory task = id_to_task[_taskId];\r\n        require(task.childDoing==0x0000000000000000000000000000000000000000);\r\n        task.childDoing = msg.sender;\r\n        id_to_task[_taskId] = task;\r\n    }\r\n\t\r\n\t/** @dev set task as completed, provided msg.sender was doing the task\r\n      * @param id the task id\r\n\t  */    \r\n    function completedATask(uint id) correctChild(id) {\r\n        require(id_to_task[id].childDoing == msg.sender);\r\n        id_to_task[id].completed = true;\r\n    }\r\n    \r\n\t/** @notice parent verifies the task and pays.\r\n\t  * @dev  must check that the right parent/address calls the method, \r\n\t\tand pays an amount.\r\n      * @param id the task id\r\n\t  */\r\n    function verifyTask(uint id) payable onlyParent(id) {        \r\n        Task memory task = id_to_task[id];    \r\n        require(task.completed);\r\n        task.childDoing.transfer(msg.value);\r\n    }\r\n}",
  "sourcePath": "/home/rahul/Desktop/jsonIPFS/contracts/TaskManager.sol",
  "compiler": {
    "name": "solc",
    "version": "0.4.24+commit.e67f0147.Emscripten.clang"
  },
  "schemaVersion": "2.0.1",
  "updatedAt": "2018-07-26T10:41:18.780Z"
}